{"contracts/TicTacToeFHE.sol":{"TicTacToeFHE":{"abi":[{"anonymous":false,"inputs":[{"indexed":true,"internalType":"uint256","name":"gameId","type":"uint256"},{"indexed":true,"internalType":"address","name":"player1","type":"address"},{"indexed":true,"internalType":"address","name":"player2","type":"address"}],"name":"GameCreated","type":"event"},{"anonymous":false,"inputs":[{"indexed":true,"internalType":"uint256","name":"gameId","type":"uint256"},{"indexed":true,"internalType":"address","name":"winner","type":"address"}],"name":"GameEnded","type":"event"},{"anonymous":false,"inputs":[{"indexed":true,"internalType":"uint256","name":"gameId","type":"uint256"},{"indexed":true,"internalType":"address","name":"player","type":"address"},{"indexed":false,"internalType":"uint8","name":"position","type":"uint8"}],"name":"MoveMade","type":"event"},{"anonymous":false,"inputs":[{"indexed":true,"internalType":"uint256","name":"gameId","type":"uint256"},{"indexed":true,"internalType":"address","name":"player2","type":"address"}],"name":"PlayerJoined","type":"event"},{"anonymous":false,"inputs":[{"indexed":true,"internalType":"uint256","name":"gameId","type":"uint256"},{"indexed":true,"internalType":"address","name":"winner","type":"address"}],"name":"WinnerRevealed","type":"event"},{"inputs":[],"name":"createGame","outputs":[{"internalType":"uint256","name":"","type":"uint256"}],"stateMutability":"nonpayable","type":"function"},{"inputs":[],"name":"gameCounter","outputs":[{"internalType":"uint256","name":"","type":"uint256"}],"stateMutability":"view","type":"function"},{"inputs":[{"internalType":"uint256","name":"","type":"uint256"}],"name":"games","outputs":[{"internalType":"address","name":"player1","type":"address"},{"internalType":"address","name":"player2","type":"address"},{"internalType":"address","name":"currentPlayer","type":"address"},{"internalType":"bool","name":"isActive","type":"bool"},{"internalType":"address","name":"winner","type":"address"},{"internalType":"uint256","name":"createdAt","type":"uint256"},{"internalType":"uint8","name":"moveCount","type":"uint8"}],"stateMutability":"view","type":"function"},{"inputs":[{"internalType":"uint256","name":"gameId","type":"uint256"}],"name":"getEncryptedBoard","outputs":[{"internalType":"bytes32[9]","name":"","type":"bytes32[9]"}],"stateMutability":"view","type":"function"},{"inputs":[{"internalType":"uint256","name":"gameId","type":"uint256"}],"name":"getGame","outputs":[{"internalType":"address","name":"player1","type":"address"},{"internalType":"address","name":"player2","type":"address"},{"internalType":"address","name":"currentPlayer","type":"address"},{"internalType":"bool","name":"isActive","type":"bool"},{"internalType":"address","name":"winner","type":"address"},{"internalType":"uint8","name":"moveCount","type":"uint8"}],"stateMutability":"view","type":"function"},{"inputs":[{"internalType":"address","name":"player","type":"address"}],"name":"getPlayerActiveGames","outputs":[{"internalType":"uint256[]","name":"","type":"uint256[]"}],"stateMutability":"view","type":"function"},{"inputs":[{"internalType":"uint256","name":"gameId","type":"uint256"},{"internalType":"address","name":"player","type":"address"}],"name":"isWinner","outputs":[{"internalType":"bool","name":"","type":"bool"}],"stateMutability":"view","type":"function"},{"inputs":[{"internalType":"uint256","name":"gameId","type":"uint256"}],"name":"joinGame","outputs":[],"stateMutability":"nonpayable","type":"function"},{"inputs":[{"internalType":"uint256","name":"gameId","type":"uint256"},{"internalType":"uint8","name":"position","type":"uint8"},{"internalType":"bytes32","name":"encryptedMove","type":"bytes32"},{"internalType":"bytes","name":"attestation","type":"bytes"}],"name":"makeMove","outputs":[],"stateMutability":"nonpayable","type":"function"},{"inputs":[{"internalType":"address","name":"","type":"address"},{"internalType":"uint256","name":"","type":"uint256"}],"name":"playerActiveGames","outputs":[{"internalType":"uint256","name":"","type":"uint256"}],"stateMutability":"view","type":"function"},{"inputs":[{"internalType":"uint256","name":"gameId","type":"uint256"},{"internalType":"address","name":"winner","type":"address"}],"name":"revealWinner","outputs":[],"stateMutability":"nonpayable","type":"function"}],"evm":{"bytecode":{"linkReferences":{},"object":"608060405234801561001057600080fd5b50610e8e806100206000396000f3fe608060405234801561001057600080fd5b50600436106100a95760003560e01c8063406583311161007157806340658331146101c15780637255d729146101e1578063a2f77bcc146101e9578063bdd415af14610241578063d2a6629c14610264578063efaa55a01461027757600080fd5b80630756d15e146100ae578063117a5b90146100c3578063238cdf06146101775780632e0be39a1461018a57806333dc9458146101a1575b600080fd5b6100c16100bc366004610c25565b61028a565b005b6101256100d1366004610c51565b6000602081905290815260409020805460018201546002830154600c840154600d850154600e909501546001600160a01b0394851695938516949283169360ff808416946101009094049093169290911687565b604080516001600160a01b0398891681529688166020880152948716948601949094529115156060850152909316608083015260a082019290925260ff90911660c082015260e0015b60405180910390f35b6100c1610185366004610c6a565b610356565b61019360015481565b60405190815260200161016e565b6101b46101af366004610d06565b61060b565b60405161016e9190610d28565b6101d46101cf366004610c51565b610677565b60405161016e9190610d6c565b6101936106c2565b6101fc6101f7366004610c51565b61084c565b604080516001600160a01b0397881681529587166020870152938616938501939093529015156060840152909216608082015260ff90911660a082015260c00161016e565b61025461024f366004610c25565b610946565b604051901515815260200161016e565b610193610272366004610d9e565b610a15565b6100c1610285366004610c51565b610a46565b6000828152602081905260409020600c81015460ff166102c55760405162461bcd60e51b81526004016102bc90610dc8565b60405180910390fd5b600c810180546001600160a81b0319166101006001600160a01b03851690810260ff19169190911790915560405184907f8a200a9381e7110d8d648c741104b392967fa6a0652131a728c38526bc0b123690600090a36040516001600160a01b0383169084907f3d5fcd8fa3235aeb3897f25c8ea49989174981afcb01b9d03189d1056a16775b90600090a3505050565b60098460ff161061039c5760405162461bcd60e51b815260206004820152601060248201526f24b73b30b634b2103837b9b4ba34b7b760811b60448201526064016102bc565b6000858152602081905260409020600c81015460ff166103ce5760405162461bcd60e51b81526004016102bc90610dc8565b60018101546001600160a01b03166104285760405162461bcd60e51b815260206004820152601960248201527f57616974696e6720666f72207365636f6e6420706c617965720000000000000060448201526064016102bc565b60028101546001600160a01b031633146104745760405162461bcd60e51b815260206004820152600d60248201526c2737ba103cb7bab9103a3ab93760991b60448201526064016102bc565b60006003820160ff87166009811061048e5761048e610df4565b0154146104d65760405162461bcd60e51b81526020600482015260166024820152752837b9b4ba34b7b71030b63932b0b23c903a30b5b2b760511b60448201526064016102bc565b83816003018660ff16600981106104ef576104ef610df4565b0155600e8101805460ff1690600061050683610e20565b82546101009290920a60ff818102199093169183160217909155600e8301546009911610905061056e57600c8101805460ff1916905560405160009087907f3d5fcd8fa3235aeb3897f25c8ea49989174981afcb01b9d03189d1056a16775b908390a36105c9565b805460028201546001600160a01b039081169116146105975780546001600160a01b03166105a6565b60018101546001600160a01b03165b6002820180546001600160a01b0319166001600160a01b03929092169190911790555b60405160ff86168152339087907f2e609ae07cc76b1b2b76d7ada4250d5191a8eb5eb7e19181c23c5da8e9643ad19060200160405180910390a3505050505050565b6001600160a01b03811660009081526002602090815260409182902080548351818402810184019094528084526060939283018282801561066b57602002820191906000526020600020905b815481526020019060010190808311610657575b50505050509050919050565b61067f610b97565b6000828152602081815260409182902082516101208101938490526003820180548252909390926009926004019085018083116106575750505050509050919050565b6001546000906106d0610b97565b604080516101008101825233808252600060208084018281528486019384526060850187815260016080870181905260a087018590524260c088015260e087018590528985529284905295909220845181546001600160a01b03199081166001600160a01b03928316178355935192820180548516938216939093179092559251600284018054909316911617905591519091906107749060038301906009610bb6565b506080820151600c8201805460a08501516001600160a01b031661010002610100600160a81b0319931515939093166001600160a81b03199091161791909117905560c0820151600d82015560e090910151600e909101805460ff9290921660ff1992909216919091179055600180549060006107f083610e3f565b909155505033600081815260026020908152604080832080546001810182559084529183209091018590555190919084907f8946648bc1dbc670d3f07e2c4de91731227b6d4ccc53b8ab1e951e84d960577e908490a450919050565b60008181526020818152604080832081516101008101835281546001600160a01b039081168252600183015481169482019490945260028201549093168383015281516101208101928390528493849384938493849384939092916060840191600384019060099082845b8154815260200190600101908083116108b7575050509183525050600c82015460ff80821615156020808501919091526101009092046001600160a01b0316604080850191909152600d8501546060850152600e9094015416608092830152835190840151928401519184015160a085015160e090950151919d939c50919a5090985091965090945092505050565b60008281526020818152604080832081516101008101835281546001600160a01b03908116825260018301548116948201949094526002820154909316838301528151610120810192839052849392606084019190600384019060099082845b8154815260200190600101908083116109a6575050509183525050600c82015460ff808216151560208401526001600160a01b0361010090920482166040840152600d8401546060840152600e9093015490921660809091015260a09091015181169084161491505092915050565b60026020528160005260406000208181548110610a3157600080fd5b90600052602060002001600091509150505481565b6000818152602081905260409020600c81015460ff16610a785760405162461bcd60e51b81526004016102bc90610dc8565b60018101546001600160a01b031615610ad35760405162461bcd60e51b815260206004820152601c60248201527f47616d6520616c7265616479206861732074776f20706c61796572730000000060448201526064016102bc565b8054336001600160a01b0390911603610b2e5760405162461bcd60e51b815260206004820152601960248201527f43616e6e6f74206a6f696e20796f7572206f776e2067616d650000000000000060448201526064016102bc565b600180820180546001600160a01b0319163390811790915560008181526002602090815260408083208054958601815583529082209093018590559151909184917f87969bc7faf902221a147b95ceba76e011c5efb0339a0a8ee7a2bb82d9cfbbd69190a35050565b6040518061012001604052806009906020820280368337509192915050565b8260098101928215610be4579160200282015b82811115610be4578251825591602001919060010190610bc9565b50610bf0929150610bf4565b5090565b5b80821115610bf05760008155600101610bf5565b80356001600160a01b0381168114610c2057600080fd5b919050565b60008060408385031215610c3857600080fd5b82359150610c4860208401610c09565b90509250929050565b600060208284031215610c6357600080fd5b5035919050565b600080600080600060808688031215610c8257600080fd5b85359450602086013560ff81168114610c9a57600080fd5b935060408601359250606086013567ffffffffffffffff80821115610cbe57600080fd5b818801915088601f830112610cd257600080fd5b813581811115610ce157600080fd5b896020828501011115610cf357600080fd5b9699959850939650602001949392505050565b600060208284031215610d1857600080fd5b610d2182610c09565b9392505050565b6020808252825182820181905260009190848201906040850190845b81811015610d6057835183529284019291840191600101610d44565b50909695505050505050565b6101208101818360005b6009811015610d95578151835260209283019290910190600101610d76565b50505092915050565b60008060408385031215610db157600080fd5b610dba83610c09565b946020939093013593505050565b60208082526012908201527147616d65206973206e6f742061637469766560701b604082015260600190565b634e487b7160e01b600052603260045260246000fd5b634e487b7160e01b600052601160045260246000fd5b600060ff821660ff8103610e3657610e36610e0a565b60010192915050565b600060018201610e5157610e51610e0a565b506001019056fea26469706673582212204b63444166cb9e6bc1d1ffd6da084c7cc96f87e93298159e9cf9ec6842a738dd64736f6c63430008140033","opcodes":"PUSH1 0x80 PUSH1 0x40 MSTORE CALLVALUE DUP1 ISZERO PUSH2 0x10 JUMPI PUSH1 0x0 DUP1 REVERT JUMPDEST POP PUSH2 0xE8E DUP1 PUSH2 0x20 PUSH1 0x0 CODECOPY PUSH1 0x0 RETURN INVALID PUSH1 0x80 PUSH1 0x40 MSTORE CALLVALUE DUP1 ISZERO PUSH2 0x10 JUMPI PUSH1 0x0 DUP1 REVERT JUMPDEST POP PUSH1 0x4 CALLDATASIZE LT PUSH2 0xA9 JUMPI PUSH1 0x0 CALLDATALOAD PUSH1 0xE0 SHR DUP1 PUSH4 0x40658331 GT PUSH2 0x71 JUMPI DUP1 PUSH4 0x40658331 EQ PUSH2 0x1C1 JUMPI DUP1 PUSH4 0x7255D729 EQ PUSH2 0x1E1 JUMPI DUP1 PUSH4 0xA2F77BCC EQ PUSH2 0x1E9 JUMPI DUP1 PUSH4 0xBDD415AF EQ PUSH2 0x241 JUMPI DUP1 PUSH4 0xD2A6629C EQ PUSH2 0x264 JUMPI DUP1 PUSH4 0xEFAA55A0 EQ PUSH2 0x277 JUMPI PUSH1 0x0 DUP1 REVERT JUMPDEST DUP1 PUSH4 0x756D15E EQ PUSH2 0xAE JUMPI DUP1 PUSH4 0x117A5B90 EQ PUSH2 0xC3 JUMPI DUP1 PUSH4 0x238CDF06 EQ PUSH2 0x177 JUMPI DUP1 PUSH4 0x2E0BE39A EQ PUSH2 0x18A JUMPI DUP1 PUSH4 0x33DC9458 EQ PUSH2 0x1A1 JUMPI JUMPDEST PUSH1 0x0 DUP1 REVERT JUMPDEST PUSH2 0xC1 PUSH2 0xBC CALLDATASIZE PUSH1 0x4 PUSH2 0xC25 JUMP JUMPDEST PUSH2 0x28A JUMP JUMPDEST STOP JUMPDEST PUSH2 0x125 PUSH2 0xD1 CALLDATASIZE PUSH1 0x4 PUSH2 0xC51 JUMP JUMPDEST PUSH1 0x0 PUSH1 0x20 DUP2 SWAP1 MSTORE SWAP1 DUP2 MSTORE PUSH1 0x40 SWAP1 KECCAK256 DUP1 SLOAD PUSH1 0x1 DUP3 ADD SLOAD PUSH1 0x2 DUP4 ADD SLOAD PUSH1 0xC DUP5 ADD SLOAD PUSH1 0xD DUP6 ADD SLOAD PUSH1 0xE SWAP1 SWAP6 ADD SLOAD PUSH1 0x1 PUSH1 0x1 PUSH1 0xA0 SHL SUB SWAP5 DUP6 AND SWAP6 SWAP4 DUP6 AND SWAP5 SWAP3 DUP4 AND SWAP4 PUSH1 0xFF DUP1 DUP5 AND SWAP5 PUSH2 0x100 SWAP1 SWAP5 DIV SWAP1 SWAP4 AND SWAP3 SWAP1 SWAP2 AND DUP8 JUMP JUMPDEST PUSH1 0x40 DUP1 MLOAD PUSH1 0x1 PUSH1 0x1 PUSH1 0xA0 SHL SUB SWAP9 DUP10 AND DUP2 MSTORE SWAP7 DUP9 AND PUSH1 0x20 DUP9 ADD MSTORE SWAP5 DUP8 AND SWAP5 DUP7 ADD SWAP5 SWAP1 SWAP5 MSTORE SWAP2 ISZERO ISZERO PUSH1 0x60 DUP6 ADD MSTORE SWAP1 SWAP4 AND PUSH1 0x80 DUP4 ADD MSTORE PUSH1 0xA0 DUP3 ADD SWAP3 SWAP1 SWAP3 MSTORE PUSH1 0xFF SWAP1 SWAP2 AND PUSH1 0xC0 DUP3 ADD MSTORE PUSH1 0xE0 ADD JUMPDEST PUSH1 0x40 MLOAD DUP1 SWAP2 SUB SWAP1 RETURN JUMPDEST PUSH2 0xC1 PUSH2 0x185 CALLDATASIZE PUSH1 0x4 PUSH2 0xC6A JUMP JUMPDEST PUSH2 0x356 JUMP JUMPDEST PUSH2 0x193 PUSH1 0x1 SLOAD DUP2 JUMP JUMPDEST PUSH1 0x40 MLOAD SWAP1 DUP2 MSTORE PUSH1 0x20 ADD PUSH2 0x16E JUMP JUMPDEST PUSH2 0x1B4 PUSH2 0x1AF CALLDATASIZE PUSH1 0x4 PUSH2 0xD06 JUMP JUMPDEST PUSH2 0x60B JUMP JUMPDEST PUSH1 0x40 MLOAD PUSH2 0x16E SWAP2 SWAP1 PUSH2 0xD28 JUMP JUMPDEST PUSH2 0x1D4 PUSH2 0x1CF CALLDATASIZE PUSH1 0x4 PUSH2 0xC51 JUMP JUMPDEST PUSH2 0x677 JUMP JUMPDEST PUSH1 0x40 MLOAD PUSH2 0x16E SWAP2 SWAP1 PUSH2 0xD6C JUMP JUMPDEST PUSH2 0x193 PUSH2 0x6C2 JUMP JUMPDEST PUSH2 0x1FC PUSH2 0x1F7 CALLDATASIZE PUSH1 0x4 PUSH2 0xC51 JUMP JUMPDEST PUSH2 0x84C JUMP JUMPDEST PUSH1 0x40 DUP1 MLOAD PUSH1 0x1 PUSH1 0x1 PUSH1 0xA0 SHL SUB SWAP8 DUP9 AND DUP2 MSTORE SWAP6 DUP8 AND PUSH1 0x20 DUP8 ADD MSTORE SWAP4 DUP7 AND SWAP4 DUP6 ADD SWAP4 SWAP1 SWAP4 MSTORE SWAP1 ISZERO ISZERO PUSH1 0x60 DUP5 ADD MSTORE SWAP1 SWAP3 AND PUSH1 0x80 DUP3 ADD MSTORE PUSH1 0xFF SWAP1 SWAP2 AND PUSH1 0xA0 DUP3 ADD MSTORE PUSH1 0xC0 ADD PUSH2 0x16E JUMP JUMPDEST PUSH2 0x254 PUSH2 0x24F CALLDATASIZE PUSH1 0x4 PUSH2 0xC25 JUMP JUMPDEST PUSH2 0x946 JUMP JUMPDEST PUSH1 0x40 MLOAD SWAP1 ISZERO ISZERO DUP2 MSTORE PUSH1 0x20 ADD PUSH2 0x16E JUMP JUMPDEST PUSH2 0x193 PUSH2 0x272 CALLDATASIZE PUSH1 0x4 PUSH2 0xD9E JUMP JUMPDEST PUSH2 0xA15 JUMP JUMPDEST PUSH2 0xC1 PUSH2 0x285 CALLDATASIZE PUSH1 0x4 PUSH2 0xC51 JUMP JUMPDEST PUSH2 0xA46 JUMP JUMPDEST PUSH1 0x0 DUP3 DUP2 MSTORE PUSH1 0x20 DUP2 SWAP1 MSTORE PUSH1 0x40 SWAP1 KECCAK256 PUSH1 0xC DUP2 ADD SLOAD PUSH1 0xFF AND PUSH2 0x2C5 JUMPI PUSH1 0x40 MLOAD PUSH3 0x461BCD PUSH1 0xE5 SHL DUP2 MSTORE PUSH1 0x4 ADD PUSH2 0x2BC SWAP1 PUSH2 0xDC8 JUMP JUMPDEST PUSH1 0x40 MLOAD DUP1 SWAP2 SUB SWAP1 REVERT JUMPDEST PUSH1 0xC DUP2 ADD DUP1 SLOAD PUSH1 0x1 PUSH1 0x1 PUSH1 0xA8 SHL SUB NOT AND PUSH2 0x100 PUSH1 0x1 PUSH1 0x1 PUSH1 0xA0 SHL SUB DUP6 AND SWAP1 DUP2 MUL PUSH1 0xFF NOT AND SWAP2 SWAP1 SWAP2 OR SWAP1 SWAP2 SSTORE PUSH1 0x40 MLOAD DUP5 SWAP1 PUSH32 0x8A200A9381E7110D8D648C741104B392967FA6A0652131A728C38526BC0B1236 SWAP1 PUSH1 0x0 SWAP1 LOG3 PUSH1 0x40 MLOAD PUSH1 0x1 PUSH1 0x1 PUSH1 0xA0 SHL SUB DUP4 AND SWAP1 DUP5 SWAP1 PUSH32 0x3D5FCD8FA3235AEB3897F25C8EA49989174981AFCB01B9D03189D1056A16775B SWAP1 PUSH1 0x0 SWAP1 LOG3 POP POP POP JUMP JUMPDEST PUSH1 0x9 DUP5 PUSH1 0xFF AND LT PUSH2 0x39C JUMPI PUSH1 0x40 MLOAD PUSH3 0x461BCD PUSH1 0xE5 SHL DUP2 MSTORE PUSH1 0x20 PUSH1 0x4 DUP3 ADD MSTORE PUSH1 0x10 PUSH1 0x24 DUP3 ADD MSTORE PUSH16 0x24B73B30B634B2103837B9B4BA34B7B7 PUSH1 0x81 SHL PUSH1 0x44 DUP3 ADD MSTORE PUSH1 0x64 ADD PUSH2 0x2BC JUMP JUMPDEST PUSH1 0x0 DUP6 DUP2 MSTORE PUSH1 0x20 DUP2 SWAP1 MSTORE PUSH1 0x40 SWAP1 KECCAK256 PUSH1 0xC DUP2 ADD SLOAD PUSH1 0xFF AND PUSH2 0x3CE JUMPI PUSH1 0x40 MLOAD PUSH3 0x461BCD PUSH1 0xE5 SHL DUP2 MSTORE PUSH1 0x4 ADD PUSH2 0x2BC SWAP1 PUSH2 0xDC8 JUMP JUMPDEST PUSH1 0x1 DUP2 ADD SLOAD PUSH1 0x1 PUSH1 0x1 PUSH1 0xA0 SHL SUB AND PUSH2 0x428 JUMPI PUSH1 0x40 MLOAD PUSH3 0x461BCD PUSH1 0xE5 SHL DUP2 MSTORE PUSH1 0x20 PUSH1 0x4 DUP3 ADD MSTORE PUSH1 0x19 PUSH1 0x24 DUP3 ADD MSTORE PUSH32 0x57616974696E6720666F72207365636F6E6420706C6179657200000000000000 PUSH1 0x44 DUP3 ADD MSTORE PUSH1 0x64 ADD PUSH2 0x2BC JUMP JUMPDEST PUSH1 0x2 DUP2 ADD SLOAD PUSH1 0x1 PUSH1 0x1 PUSH1 0xA0 SHL SUB AND CALLER EQ PUSH2 0x474 JUMPI PUSH1 0x40 MLOAD PUSH3 0x461BCD PUSH1 0xE5 SHL DUP2 MSTORE PUSH1 0x20 PUSH1 0x4 DUP3 ADD MSTORE PUSH1 0xD PUSH1 0x24 DUP3 ADD MSTORE PUSH13 0x2737BA103CB7BAB9103A3AB937 PUSH1 0x99 SHL PUSH1 0x44 DUP3 ADD MSTORE PUSH1 0x64 ADD PUSH2 0x2BC JUMP JUMPDEST PUSH1 0x0 PUSH1 0x3 DUP3 ADD PUSH1 0xFF DUP8 AND PUSH1 0x9 DUP2 LT PUSH2 0x48E JUMPI PUSH2 0x48E PUSH2 0xDF4 JUMP JUMPDEST ADD SLOAD EQ PUSH2 0x4D6 JUMPI PUSH1 0x40 MLOAD PUSH3 0x461BCD PUSH1 0xE5 SHL DUP2 MSTORE PUSH1 0x20 PUSH1 0x4 DUP3 ADD MSTORE PUSH1 0x16 PUSH1 0x24 DUP3 ADD MSTORE PUSH22 0x2837B9B4BA34B7B71030B63932B0B23C903A30B5B2B7 PUSH1 0x51 SHL PUSH1 0x44 DUP3 ADD MSTORE PUSH1 0x64 ADD PUSH2 0x2BC JUMP JUMPDEST DUP4 DUP2 PUSH1 0x3 ADD DUP7 PUSH1 0xFF AND PUSH1 0x9 DUP2 LT PUSH2 0x4EF JUMPI PUSH2 0x4EF PUSH2 0xDF4 JUMP JUMPDEST ADD SSTORE PUSH1 0xE DUP2 ADD DUP1 SLOAD PUSH1 0xFF AND SWAP1 PUSH1 0x0 PUSH2 0x506 DUP4 PUSH2 0xE20 JUMP JUMPDEST DUP3 SLOAD PUSH2 0x100 SWAP3 SWAP1 SWAP3 EXP PUSH1 0xFF DUP2 DUP2 MUL NOT SWAP1 SWAP4 AND SWAP2 DUP4 AND MUL OR SWAP1 SWAP2 SSTORE PUSH1 0xE DUP4 ADD SLOAD PUSH1 0x9 SWAP2 AND LT SWAP1 POP PUSH2 0x56E JUMPI PUSH1 0xC DUP2 ADD DUP1 SLOAD PUSH1 0xFF NOT AND SWAP1 SSTORE PUSH1 0x40 MLOAD PUSH1 0x0 SWAP1 DUP8 SWAP1 PUSH32 0x3D5FCD8FA3235AEB3897F25C8EA49989174981AFCB01B9D03189D1056A16775B SWAP1 DUP4 SWAP1 LOG3 PUSH2 0x5C9 JUMP JUMPDEST DUP1 SLOAD PUSH1 0x2 DUP3 ADD SLOAD PUSH1 0x1 PUSH1 0x1 PUSH1 0xA0 SHL SUB SWAP1 DUP2 AND SWAP2 AND EQ PUSH2 0x597 JUMPI DUP1 SLOAD PUSH1 0x1 PUSH1 0x1 PUSH1 0xA0 SHL SUB AND PUSH2 0x5A6 JUMP JUMPDEST PUSH1 0x1 DUP2 ADD SLOAD PUSH1 0x1 PUSH1 0x1 PUSH1 0xA0 SHL SUB AND JUMPDEST PUSH1 0x2 DUP3 ADD DUP1 SLOAD PUSH1 0x1 PUSH1 0x1 PUSH1 0xA0 SHL SUB NOT AND PUSH1 0x1 PUSH1 0x1 PUSH1 0xA0 SHL SUB SWAP3 SWAP1 SWAP3 AND SWAP2 SWAP1 SWAP2 OR SWAP1 SSTORE JUMPDEST PUSH1 0x40 MLOAD PUSH1 0xFF DUP7 AND DUP2 MSTORE CALLER SWAP1 DUP8 SWAP1 PUSH32 0x2E609AE07CC76B1B2B76D7ADA4250D5191A8EB5EB7E19181C23C5DA8E9643AD1 SWAP1 PUSH1 0x20 ADD PUSH1 0x40 MLOAD DUP1 SWAP2 SUB SWAP1 LOG3 POP POP POP POP POP POP JUMP JUMPDEST PUSH1 0x1 PUSH1 0x1 PUSH1 0xA0 SHL SUB DUP2 AND PUSH1 0x0 SWAP1 DUP2 MSTORE PUSH1 0x2 PUSH1 0x20 SWAP1 DUP2 MSTORE PUSH1 0x40 SWAP2 DUP3 SWAP1 KECCAK256 DUP1 SLOAD DUP4 MLOAD DUP2 DUP5 MUL DUP2 ADD DUP5 ADD SWAP1 SWAP5 MSTORE DUP1 DUP5 MSTORE PUSH1 0x60 SWAP4 SWAP3 DUP4 ADD DUP3 DUP3 DUP1 ISZERO PUSH2 0x66B JUMPI PUSH1 0x20 MUL DUP3 ADD SWAP2 SWAP1 PUSH1 0x0 MSTORE PUSH1 0x20 PUSH1 0x0 KECCAK256 SWAP1 JUMPDEST DUP2 SLOAD DUP2 MSTORE PUSH1 0x20 ADD SWAP1 PUSH1 0x1 ADD SWAP1 DUP1 DUP4 GT PUSH2 0x657 JUMPI JUMPDEST POP POP POP POP POP SWAP1 POP SWAP2 SWAP1 POP JUMP JUMPDEST PUSH2 0x67F PUSH2 0xB97 JUMP JUMPDEST PUSH1 0x0 DUP3 DUP2 MSTORE PUSH1 0x20 DUP2 DUP2 MSTORE PUSH1 0x40 SWAP2 DUP3 SWAP1 KECCAK256 DUP3 MLOAD PUSH2 0x120 DUP2 ADD SWAP4 DUP5 SWAP1 MSTORE PUSH1 0x3 DUP3 ADD DUP1 SLOAD DUP3 MSTORE SWAP1 SWAP4 SWAP1 SWAP3 PUSH1 0x9 SWAP3 PUSH1 0x4 ADD SWAP1 DUP6 ADD DUP1 DUP4 GT PUSH2 0x657 JUMPI POP POP POP POP POP SWAP1 POP SWAP2 SWAP1 POP JUMP JUMPDEST PUSH1 0x1 SLOAD PUSH1 0x0 SWAP1 PUSH2 0x6D0 PUSH2 0xB97 JUMP JUMPDEST PUSH1 0x40 DUP1 MLOAD PUSH2 0x100 DUP2 ADD DUP3 MSTORE CALLER DUP1 DUP3 MSTORE PUSH1 0x0 PUSH1 0x20 DUP1 DUP5 ADD DUP3 DUP2 MSTORE DUP5 DUP7 ADD SWAP4 DUP5 MSTORE PUSH1 0x60 DUP6 ADD DUP8 DUP2 MSTORE PUSH1 0x1 PUSH1 0x80 DUP8 ADD DUP2 SWAP1 MSTORE PUSH1 0xA0 DUP8 ADD DUP6 SWAP1 MSTORE TIMESTAMP PUSH1 0xC0 DUP9 ADD MSTORE PUSH1 0xE0 DUP8 ADD DUP6 SWAP1 MSTORE DUP10 DUP6 MSTORE SWAP3 DUP5 SWAP1 MSTORE SWAP6 SWAP1 SWAP3 KECCAK256 DUP5 MLOAD DUP2 SLOAD PUSH1 0x1 PUSH1 0x1 PUSH1 0xA0 SHL SUB NOT SWAP1 DUP2 AND PUSH1 0x1 PUSH1 0x1 PUSH1 0xA0 SHL SUB SWAP3 DUP4 AND OR DUP4 SSTORE SWAP4 MLOAD SWAP3 DUP3 ADD DUP1 SLOAD DUP6 AND SWAP4 DUP3 AND SWAP4 SWAP1 SWAP4 OR SWAP1 SWAP3 SSTORE SWAP3 MLOAD PUSH1 0x2 DUP5 ADD DUP1 SLOAD SWAP1 SWAP4 AND SWAP2 AND OR SWAP1 SSTORE SWAP2 MLOAD SWAP1 SWAP2 SWAP1 PUSH2 0x774 SWAP1 PUSH1 0x3 DUP4 ADD SWAP1 PUSH1 0x9 PUSH2 0xBB6 JUMP JUMPDEST POP PUSH1 0x80 DUP3 ADD MLOAD PUSH1 0xC DUP3 ADD DUP1 SLOAD PUSH1 0xA0 DUP6 ADD MLOAD PUSH1 0x1 PUSH1 0x1 PUSH1 0xA0 SHL SUB AND PUSH2 0x100 MUL PUSH2 0x100 PUSH1 0x1 PUSH1 0xA8 SHL SUB NOT SWAP4 ISZERO ISZERO SWAP4 SWAP1 SWAP4 AND PUSH1 0x1 PUSH1 0x1 PUSH1 0xA8 SHL SUB NOT SWAP1 SWAP2 AND OR SWAP2 SWAP1 SWAP2 OR SWAP1 SSTORE PUSH1 0xC0 DUP3 ADD MLOAD PUSH1 0xD DUP3 ADD SSTORE PUSH1 0xE0 SWAP1 SWAP2 ADD MLOAD PUSH1 0xE SWAP1 SWAP2 ADD DUP1 SLOAD PUSH1 0xFF SWAP3 SWAP1 SWAP3 AND PUSH1 0xFF NOT SWAP3 SWAP1 SWAP3 AND SWAP2 SWAP1 SWAP2 OR SWAP1 SSTORE PUSH1 0x1 DUP1 SLOAD SWAP1 PUSH1 0x0 PUSH2 0x7F0 DUP4 PUSH2 0xE3F JUMP JUMPDEST SWAP1 SWAP2 SSTORE POP POP CALLER PUSH1 0x0 DUP2 DUP2 MSTORE PUSH1 0x2 PUSH1 0x20 SWAP1 DUP2 MSTORE PUSH1 0x40 DUP1 DUP4 KECCAK256 DUP1 SLOAD PUSH1 0x1 DUP2 ADD DUP3 SSTORE SWAP1 DUP5 MSTORE SWAP2 DUP4 KECCAK256 SWAP1 SWAP2 ADD DUP6 SWAP1 SSTORE MLOAD SWAP1 SWAP2 SWAP1 DUP5 SWAP1 PUSH32 0x8946648BC1DBC670D3F07E2C4DE91731227B6D4CCC53B8AB1E951E84D960577E SWAP1 DUP5 SWAP1 LOG4 POP SWAP2 SWAP1 POP JUMP JUMPDEST PUSH1 0x0 DUP2 DUP2 MSTORE PUSH1 0x20 DUP2 DUP2 MSTORE PUSH1 0x40 DUP1 DUP4 KECCAK256 DUP2 MLOAD PUSH2 0x100 DUP2 ADD DUP4 MSTORE DUP2 SLOAD PUSH1 0x1 PUSH1 0x1 PUSH1 0xA0 SHL SUB SWAP1 DUP2 AND DUP3 MSTORE PUSH1 0x1 DUP4 ADD SLOAD DUP2 AND SWAP5 DUP3 ADD SWAP5 SWAP1 SWAP5 MSTORE PUSH1 0x2 DUP3 ADD SLOAD SWAP1 SWAP4 AND DUP4 DUP4 ADD MSTORE DUP2 MLOAD PUSH2 0x120 DUP2 ADD SWAP3 DUP4 SWAP1 MSTORE DUP5 SWAP4 DUP5 SWAP4 DUP5 SWAP4 DUP5 SWAP4 DUP5 SWAP4 DUP5 SWAP4 SWAP1 SWAP3 SWAP2 PUSH1 0x60 DUP5 ADD SWAP2 PUSH1 0x3 DUP5 ADD SWAP1 PUSH1 0x9 SWAP1 DUP3 DUP5 JUMPDEST DUP2 SLOAD DUP2 MSTORE PUSH1 0x20 ADD SWAP1 PUSH1 0x1 ADD SWAP1 DUP1 DUP4 GT PUSH2 0x8B7 JUMPI POP POP POP SWAP2 DUP4 MSTORE POP POP PUSH1 0xC DUP3 ADD SLOAD PUSH1 0xFF DUP1 DUP3 AND ISZERO ISZERO PUSH1 0x20 DUP1 DUP6 ADD SWAP2 SWAP1 SWAP2 MSTORE PUSH2 0x100 SWAP1 SWAP3 DIV PUSH1 0x1 PUSH1 0x1 PUSH1 0xA0 SHL SUB AND PUSH1 0x40 DUP1 DUP6 ADD SWAP2 SWAP1 SWAP2 MSTORE PUSH1 0xD DUP6 ADD SLOAD PUSH1 0x60 DUP6 ADD MSTORE PUSH1 0xE SWAP1 SWAP5 ADD SLOAD AND PUSH1 0x80 SWAP3 DUP4 ADD MSTORE DUP4 MLOAD SWAP1 DUP5 ADD MLOAD SWAP3 DUP5 ADD MLOAD SWAP2 DUP5 ADD MLOAD PUSH1 0xA0 DUP6 ADD MLOAD PUSH1 0xE0 SWAP1 SWAP6 ADD MLOAD SWAP2 SWAP14 SWAP4 SWAP13 POP SWAP2 SWAP11 POP SWAP1 SWAP9 POP SWAP2 SWAP7 POP SWAP1 SWAP5 POP SWAP3 POP POP POP JUMP JUMPDEST PUSH1 0x0 DUP3 DUP2 MSTORE PUSH1 0x20 DUP2 DUP2 MSTORE PUSH1 0x40 DUP1 DUP4 KECCAK256 DUP2 MLOAD PUSH2 0x100 DUP2 ADD DUP4 MSTORE DUP2 SLOAD PUSH1 0x1 PUSH1 0x1 PUSH1 0xA0 SHL SUB SWAP1 DUP2 AND DUP3 MSTORE PUSH1 0x1 DUP4 ADD SLOAD DUP2 AND SWAP5 DUP3 ADD SWAP5 SWAP1 SWAP5 MSTORE PUSH1 0x2 DUP3 ADD SLOAD SWAP1 SWAP4 AND DUP4 DUP4 ADD MSTORE DUP2 MLOAD PUSH2 0x120 DUP2 ADD SWAP3 DUP4 SWAP1 MSTORE DUP5 SWAP4 SWAP3 PUSH1 0x60 DUP5 ADD SWAP2 SWAP1 PUSH1 0x3 DUP5 ADD SWAP1 PUSH1 0x9 SWAP1 DUP3 DUP5 JUMPDEST DUP2 SLOAD DUP2 MSTORE PUSH1 0x20 ADD SWAP1 PUSH1 0x1 ADD SWAP1 DUP1 DUP4 GT PUSH2 0x9A6 JUMPI POP POP POP SWAP2 DUP4 MSTORE POP POP PUSH1 0xC DUP3 ADD SLOAD PUSH1 0xFF DUP1 DUP3 AND ISZERO ISZERO PUSH1 0x20 DUP5 ADD MSTORE PUSH1 0x1 PUSH1 0x1 PUSH1 0xA0 SHL SUB PUSH2 0x100 SWAP1 SWAP3 DIV DUP3 AND PUSH1 0x40 DUP5 ADD MSTORE PUSH1 0xD DUP5 ADD SLOAD PUSH1 0x60 DUP5 ADD MSTORE PUSH1 0xE SWAP1 SWAP4 ADD SLOAD SWAP1 SWAP3 AND PUSH1 0x80 SWAP1 SWAP2 ADD MSTORE PUSH1 0xA0 SWAP1 SWAP2 ADD MLOAD DUP2 AND SWAP1 DUP5 AND EQ SWAP2 POP POP SWAP3 SWAP2 POP POP JUMP JUMPDEST PUSH1 0x2 PUSH1 0x20 MSTORE DUP2 PUSH1 0x0 MSTORE PUSH1 0x40 PUSH1 0x0 KECCAK256 DUP2 DUP2 SLOAD DUP2 LT PUSH2 0xA31 JUMPI PUSH1 0x0 DUP1 REVERT JUMPDEST SWAP1 PUSH1 0x0 MSTORE PUSH1 0x20 PUSH1 0x0 KECCAK256 ADD PUSH1 0x0 SWAP2 POP SWAP2 POP POP SLOAD DUP2 JUMP JUMPDEST PUSH1 0x0 DUP2 DUP2 MSTORE PUSH1 0x20 DUP2 SWAP1 MSTORE PUSH1 0x40 SWAP1 KECCAK256 PUSH1 0xC DUP2 ADD SLOAD PUSH1 0xFF AND PUSH2 0xA78 JUMPI PUSH1 0x40 MLOAD PUSH3 0x461BCD PUSH1 0xE5 SHL DUP2 MSTORE PUSH1 0x4 ADD PUSH2 0x2BC SWAP1 PUSH2 0xDC8 JUMP JUMPDEST PUSH1 0x1 DUP2 ADD SLOAD PUSH1 0x1 PUSH1 0x1 PUSH1 0xA0 SHL SUB AND ISZERO PUSH2 0xAD3 JUMPI PUSH1 0x40 MLOAD PUSH3 0x461BCD PUSH1 0xE5 SHL DUP2 MSTORE PUSH1 0x20 PUSH1 0x4 DUP3 ADD MSTORE PUSH1 0x1C PUSH1 0x24 DUP3 ADD MSTORE PUSH32 0x47616D6520616C7265616479206861732074776F20706C617965727300000000 PUSH1 0x44 DUP3 ADD MSTORE PUSH1 0x64 ADD PUSH2 0x2BC JUMP JUMPDEST DUP1 SLOAD CALLER PUSH1 0x1 PUSH1 0x1 PUSH1 0xA0 SHL SUB SWAP1 SWAP2 AND SUB PUSH2 0xB2E JUMPI PUSH1 0x40 MLOAD PUSH3 0x461BCD PUSH1 0xE5 SHL DUP2 MSTORE PUSH1 0x20 PUSH1 0x4 DUP3 ADD MSTORE PUSH1 0x19 PUSH1 0x24 DUP3 ADD MSTORE PUSH32 0x43616E6E6F74206A6F696E20796F7572206F776E2067616D6500000000000000 PUSH1 0x44 DUP3 ADD MSTORE PUSH1 0x64 ADD PUSH2 0x2BC JUMP JUMPDEST PUSH1 0x1 DUP1 DUP3 ADD DUP1 SLOAD PUSH1 0x1 PUSH1 0x1 PUSH1 0xA0 SHL SUB NOT AND CALLER SWAP1 DUP2 OR SWAP1 SWAP2 SSTORE PUSH1 0x0 DUP2 DUP2 MSTORE PUSH1 0x2 PUSH1 0x20 SWAP1 DUP2 MSTORE PUSH1 0x40 DUP1 DUP4 KECCAK256 DUP1 SLOAD SWAP6 DUP7 ADD DUP2 SSTORE DUP4 MSTORE SWAP1 DUP3 KECCAK256 SWAP1 SWAP4 ADD DUP6 SWAP1 SSTORE SWAP2 MLOAD SWAP1 SWAP2 DUP5 SWAP2 PUSH32 0x87969BC7FAF902221A147B95CEBA76E011C5EFB0339A0A8EE7A2BB82D9CFBBD6 SWAP2 SWAP1 LOG3 POP POP JUMP JUMPDEST PUSH1 0x40 MLOAD DUP1 PUSH2 0x120 ADD PUSH1 0x40 MSTORE DUP1 PUSH1 0x9 SWAP1 PUSH1 0x20 DUP3 MUL DUP1 CALLDATASIZE DUP4 CALLDATACOPY POP SWAP2 SWAP3 SWAP2 POP POP JUMP JUMPDEST DUP3 PUSH1 0x9 DUP2 ADD SWAP3 DUP3 ISZERO PUSH2 0xBE4 JUMPI SWAP2 PUSH1 0x20 MUL DUP3 ADD JUMPDEST DUP3 DUP2 GT ISZERO PUSH2 0xBE4 JUMPI DUP3 MLOAD DUP3 SSTORE SWAP2 PUSH1 0x20 ADD SWAP2 SWAP1 PUSH1 0x1 ADD SWAP1 PUSH2 0xBC9 JUMP JUMPDEST POP PUSH2 0xBF0 SWAP3 SWAP2 POP PUSH2 0xBF4 JUMP JUMPDEST POP SWAP1 JUMP JUMPDEST JUMPDEST DUP1 DUP3 GT ISZERO PUSH2 0xBF0 JUMPI PUSH1 0x0 DUP2 SSTORE PUSH1 0x1 ADD PUSH2 0xBF5 JUMP JUMPDEST DUP1 CALLDATALOAD PUSH1 0x1 PUSH1 0x1 PUSH1 0xA0 SHL SUB DUP2 AND DUP2 EQ PUSH2 0xC20 JUMPI PUSH1 0x0 DUP1 REVERT JUMPDEST SWAP2 SWAP1 POP JUMP JUMPDEST PUSH1 0x0 DUP1 PUSH1 0x40 DUP4 DUP6 SUB SLT ISZERO PUSH2 0xC38 JUMPI PUSH1 0x0 DUP1 REVERT JUMPDEST DUP3 CALLDATALOAD SWAP2 POP PUSH2 0xC48 PUSH1 0x20 DUP5 ADD PUSH2 0xC09 JUMP JUMPDEST SWAP1 POP SWAP3 POP SWAP3 SWAP1 POP JUMP JUMPDEST PUSH1 0x0 PUSH1 0x20 DUP3 DUP5 SUB SLT ISZERO PUSH2 0xC63 JUMPI PUSH1 0x0 DUP1 REVERT JUMPDEST POP CALLDATALOAD SWAP2 SWAP1 POP JUMP JUMPDEST PUSH1 0x0 DUP1 PUSH1 0x0 DUP1 PUSH1 0x0 PUSH1 0x80 DUP7 DUP9 SUB SLT ISZERO PUSH2 0xC82 JUMPI PUSH1 0x0 DUP1 REVERT JUMPDEST DUP6 CALLDATALOAD SWAP5 POP PUSH1 0x20 DUP7 ADD CALLDATALOAD PUSH1 0xFF DUP2 AND DUP2 EQ PUSH2 0xC9A JUMPI PUSH1 0x0 DUP1 REVERT JUMPDEST SWAP4 POP PUSH1 0x40 DUP7 ADD CALLDATALOAD SWAP3 POP PUSH1 0x60 DUP7 ADD CALLDATALOAD PUSH8 0xFFFFFFFFFFFFFFFF DUP1 DUP3 GT ISZERO PUSH2 0xCBE JUMPI PUSH1 0x0 DUP1 REVERT JUMPDEST DUP2 DUP9 ADD SWAP2 POP DUP9 PUSH1 0x1F DUP4 ADD SLT PUSH2 0xCD2 JUMPI PUSH1 0x0 DUP1 REVERT JUMPDEST DUP2 CALLDATALOAD DUP2 DUP2 GT ISZERO PUSH2 0xCE1 JUMPI PUSH1 0x0 DUP1 REVERT JUMPDEST DUP10 PUSH1 0x20 DUP3 DUP6 ADD ADD GT ISZERO PUSH2 0xCF3 JUMPI PUSH1 0x0 DUP1 REVERT JUMPDEST SWAP7 SWAP10 SWAP6 SWAP9 POP SWAP4 SWAP7 POP PUSH1 0x20 ADD SWAP5 SWAP4 SWAP3 POP POP POP JUMP JUMPDEST PUSH1 0x0 PUSH1 0x20 DUP3 DUP5 SUB SLT ISZERO PUSH2 0xD18 JUMPI PUSH1 0x0 DUP1 REVERT JUMPDEST PUSH2 0xD21 DUP3 PUSH2 0xC09 JUMP JUMPDEST SWAP4 SWAP3 POP POP POP JUMP JUMPDEST PUSH1 0x20 DUP1 DUP3 MSTORE DUP3 MLOAD DUP3 DUP3 ADD DUP2 SWAP1 MSTORE PUSH1 0x0 SWAP2 SWAP1 DUP5 DUP3 ADD SWAP1 PUSH1 0x40 DUP6 ADD SWAP1 DUP5 JUMPDEST DUP2 DUP2 LT ISZERO PUSH2 0xD60 JUMPI DUP4 MLOAD DUP4 MSTORE SWAP3 DUP5 ADD SWAP3 SWAP2 DUP5 ADD SWAP2 PUSH1 0x1 ADD PUSH2 0xD44 JUMP JUMPDEST POP SWAP1 SWAP7 SWAP6 POP POP POP POP POP POP JUMP JUMPDEST PUSH2 0x120 DUP2 ADD DUP2 DUP4 PUSH1 0x0 JUMPDEST PUSH1 0x9 DUP2 LT ISZERO PUSH2 0xD95 JUMPI DUP2 MLOAD DUP4 MSTORE PUSH1 0x20 SWAP3 DUP4 ADD SWAP3 SWAP1 SWAP2 ADD SWAP1 PUSH1 0x1 ADD PUSH2 0xD76 JUMP JUMPDEST POP POP POP SWAP3 SWAP2 POP POP JUMP JUMPDEST PUSH1 0x0 DUP1 PUSH1 0x40 DUP4 DUP6 SUB SLT ISZERO PUSH2 0xDB1 JUMPI PUSH1 0x0 DUP1 REVERT JUMPDEST PUSH2 0xDBA DUP4 PUSH2 0xC09 JUMP JUMPDEST SWAP5 PUSH1 0x20 SWAP4 SWAP1 SWAP4 ADD CALLDATALOAD SWAP4 POP POP POP JUMP JUMPDEST PUSH1 0x20 DUP1 DUP3 MSTORE PUSH1 0x12 SWAP1 DUP3 ADD MSTORE PUSH18 0x47616D65206973206E6F7420616374697665 PUSH1 0x70 SHL PUSH1 0x40 DUP3 ADD MSTORE PUSH1 0x60 ADD SWAP1 JUMP JUMPDEST PUSH4 0x4E487B71 PUSH1 0xE0 SHL PUSH1 0x0 MSTORE PUSH1 0x32 PUSH1 0x4 MSTORE PUSH1 0x24 PUSH1 0x0 REVERT JUMPDEST PUSH4 0x4E487B71 PUSH1 0xE0 SHL PUSH1 0x0 MSTORE PUSH1 0x11 PUSH1 0x4 MSTORE PUSH1 0x24 PUSH1 0x0 REVERT JUMPDEST PUSH1 0x0 PUSH1 0xFF DUP3 AND PUSH1 0xFF DUP2 SUB PUSH2 0xE36 JUMPI PUSH2 0xE36 PUSH2 0xE0A JUMP JUMPDEST PUSH1 0x1 ADD SWAP3 SWAP2 POP POP JUMP JUMPDEST PUSH1 0x0 PUSH1 0x1 DUP3 ADD PUSH2 0xE51 JUMPI PUSH2 0xE51 PUSH2 0xE0A JUMP JUMPDEST POP PUSH1 0x1 ADD SWAP1 JUMP INVALID LOG2 PUSH5 0x6970667358 0x22 SLT KECCAK256 0x4B PUSH4 0x444166CB SWAP15 PUSH12 0xC1D1FFD6DA084C7CC96F87E9 ORIGIN SWAP9 ISZERO SWAP15 SWAP13 0xF9 0xEC PUSH9 0x42A738DD64736F6C63 NUMBER STOP ADDMOD EQ STOP CALLER "},"methodIdentifiers":{"createGame()":"7255d729","gameCounter()":"2e0be39a","games(uint256)":"117a5b90","getEncryptedBoard(uint256)":"40658331","getGame(uint256)":"a2f77bcc","getPlayerActiveGames(address)":"33dc9458","isWinner(uint256,address)":"bdd415af","joinGame(uint256)":"efaa55a0","makeMove(uint256,uint8,bytes32,bytes)":"238cdf06","playerActiveGames(address,uint256)":"d2a6629c","revealWinner(uint256,address)":"0756d15e"}}}}}