{"contracts/TicTacToeMock.sol":{"TicTacToeMock":{"abi":[{"anonymous":false,"inputs":[{"indexed":true,"internalType":"uint256","name":"gameId","type":"uint256"},{"indexed":true,"internalType":"address","name":"player1","type":"address"},{"indexed":true,"internalType":"address","name":"player2","type":"address"}],"name":"GameCreated","type":"event"},{"anonymous":false,"inputs":[{"indexed":true,"internalType":"uint256","name":"gameId","type":"uint256"},{"indexed":true,"internalType":"address","name":"winner","type":"address"}],"name":"GameEnded","type":"event"},{"anonymous":false,"inputs":[{"indexed":true,"internalType":"uint256","name":"gameId","type":"uint256"},{"indexed":true,"internalType":"address","name":"player","type":"address"},{"indexed":false,"internalType":"uint8","name":"position","type":"uint8"},{"indexed":false,"internalType":"uint8","name":"symbol","type":"uint8"}],"name":"MoveMade","type":"event"},{"anonymous":false,"inputs":[{"indexed":true,"internalType":"uint256","name":"gameId","type":"uint256"},{"indexed":true,"internalType":"address","name":"player2","type":"address"}],"name":"PlayerJoined","type":"event"},{"inputs":[],"name":"createGame","outputs":[{"internalType":"uint256","name":"","type":"uint256"}],"stateMutability":"nonpayable","type":"function"},{"inputs":[],"name":"gameCounter","outputs":[{"internalType":"uint256","name":"","type":"uint256"}],"stateMutability":"view","type":"function"},{"inputs":[{"internalType":"uint256","name":"","type":"uint256"}],"name":"games","outputs":[{"internalType":"address","name":"player1","type":"address"},{"internalType":"address","name":"player2","type":"address"},{"internalType":"address","name":"currentPlayer","type":"address"},{"internalType":"bool","name":"isActive","type":"bool"},{"internalType":"address","name":"winner","type":"address"},{"internalType":"uint256","name":"createdAt","type":"uint256"}],"stateMutability":"view","type":"function"},{"inputs":[{"internalType":"uint256","name":"gameId","type":"uint256"}],"name":"getGame","outputs":[{"internalType":"address","name":"player1","type":"address"},{"internalType":"address","name":"player2","type":"address"},{"internalType":"address","name":"currentPlayer","type":"address"},{"internalType":"uint8[9]","name":"board","type":"uint8[9]"},{"internalType":"bool","name":"isActive","type":"bool"},{"internalType":"address","name":"winner","type":"address"}],"stateMutability":"view","type":"function"},{"inputs":[{"internalType":"address","name":"player","type":"address"}],"name":"getPlayerActiveGames","outputs":[{"internalType":"uint256[]","name":"","type":"uint256[]"}],"stateMutability":"view","type":"function"},{"inputs":[{"internalType":"uint256","name":"gameId","type":"uint256"},{"internalType":"address","name":"player","type":"address"}],"name":"isWinner","outputs":[{"internalType":"bool","name":"","type":"bool"}],"stateMutability":"view","type":"function"},{"inputs":[{"internalType":"uint256","name":"gameId","type":"uint256"}],"name":"joinGame","outputs":[],"stateMutability":"nonpayable","type":"function"},{"inputs":[{"internalType":"uint256","name":"gameId","type":"uint256"},{"internalType":"uint8","name":"position","type":"uint8"}],"name":"makeMove","outputs":[],"stateMutability":"nonpayable","type":"function"},{"inputs":[{"internalType":"address","name":"","type":"address"},{"internalType":"uint256","name":"","type":"uint256"}],"name":"playerActiveGames","outputs":[{"internalType":"uint256","name":"","type":"uint256"}],"stateMutability":"view","type":"function"}],"evm":{"bytecode":{"linkReferences":{},"object":"608060405234801561001057600080fd5b5061111f806100206000396000f3fe608060405234801561001057600080fd5b50600436106100935760003560e01c80637fd6f7c4116100665780637fd6f7c414610176578063a2f77bcc1461018b578063bdd415af146101b0578063d2a6629c146101d3578063efaa55a0146101e657600080fd5b8063117a5b90146100985780632e0be39a1461013757806333dc94581461014e5780637255d7291461016e575b600080fd5b6100ef6100a6366004610f13565b600060208190529081526040902080546001820154600283015460048401546005909401546001600160a01b0393841694928416939182169260ff811692610100909104169086565b604080516001600160a01b0397881681529587166020870152938616938501939093529015156060840152909216608082015260a081019190915260c0015b60405180910390f35b61014060015481565b60405190815260200161012e565b61016161015c366004610f48565b6101f9565b60405161012e9190610f6a565b610140610265565b610189610184366004610fae565b610402565b005b61019e610199366004610f13565b61081d565b60405161012e96959493929190610fe4565b6101c36101be366004611056565b61092a565b604051901515815260200161012e565b6101406101e1366004611082565b610a06565b6101896101f4366004610f13565b610a37565b6001600160a01b03811660009081526002602090815260409182902080548351818402810184019094528084526060939283018282801561025957602002820191906000526020600020905b815481526020019060010190808311610245575b50505050509050919050565b600180546040805160e0808201835233808352600060208085018281528587019384528651610120810188528381528083018490528088018490526060808201859052608080830186905260a080840187905260c0808501889052988401879052610100840187905291890192835288018b90528701849052429587019590955287835290829052948120845181546001600160a01b03199081166001600160a01b03928316178355965198820180548816998216999099179098559151600283018054909616971696909617909355519091906103499060038301906009610e4c565b50608082015160048201805460a08501516001600160a01b031661010002610100600160a81b0319931515939093166001600160a81b03199091161791909117905560c090910151600590910155600180549060006103a7836110ac565b909155505033600081815260026020908152604080832080546001810182559084529183209091018490555190919083907f8946648bc1dbc670d3f07e2c4de91731227b6d4ccc53b8ab1e951e84d960577e908490a4919050565b60098160ff161061044d5760405162461bcd60e51b815260206004820152601060248201526f24b73b30b634b2103837b9b4ba34b7b760811b60448201526064015b60405180910390fd5b6000828152602081905260409020600481015460ff166104a45760405162461bcd60e51b815260206004820152601260248201527147616d65206973206e6f742061637469766560701b6044820152606401610444565b60018101546001600160a01b03166104fe5760405162461bcd60e51b815260206004820152601960248201527f57616974696e6720666f72207365636f6e6420706c61796572000000000000006044820152606401610444565b60028101546001600160a01b0316331461054a5760405162461bcd60e51b815260206004820152600d60248201526c2737ba103cb7bab9103a3ab93760991b6044820152606401610444565b806003018260ff1660098110610562576105626110d3565b602081049091015460ff601f9092166101000a900416156105be5760405162461bcd60e51b81526020600482015260166024820152752837b9b4ba34b7b71030b63932b0b23c903a30b5b2b760511b6044820152606401610444565b80546000906001600160a01b031633146105d95760026105dc565b60015b905080826003018460ff16600981106105f7576105f76110d3565b602091828204019190066101000a81548160ff021916908360ff160217905550600061067f83600301600980602002604051908101604052809291908260098015610675576020028201916000905b825461010083900a900460ff168152602060019283018181049485019490930390920291018084116106465790505b5050505050610bad565b90506001600160a01b038116156106e1576004830180546001600160a81b03191633610100810260ff19169190911790915560405186907f3d5fcd8fa3235aeb3897f25c8ea49989174981afcb01b9d03189d1056a16775b90600090a36107d5565b60408051610120810191829052610737916003860190600990826000855b825461010083900a900460ff168152602060019283018181049485019490930390920291018084116106ff5790505050505050610dfa565b1561077a5760048301805460ff1916905560405160009086907f3d5fcd8fa3235aeb3897f25c8ea49989174981afcb01b9d03189d1056a16775b908390a36107d5565b825460028401546001600160a01b039081169116146107a35782546001600160a01b03166107b2565b60018301546001600160a01b03165b6002840180546001600160a01b0319166001600160a01b03929092169190911790555b6040805160ff808716825284166020820152339187917fbe40d1920f8027f06bc68552ed303055fa07d40c841a38363937c06d7651495a910160405180910390a35050505050565b600080600061082a610edf565b600085815260208181526040808320815160e08101835281546001600160a01b0390811682526001830154811694820194909452600282015490931683830152815161012081019283905284938493909291606084019160038401906009908288855b825461010083900a900460ff1681526020600192830181810494850194909303909202910180841161088d57505050928452505050600482015460ff811615156020808401919091526101009091046001600160a01b03166040808401919091526005909301546060928301528351908401519284015191840151608085015160a090950151919d939c50919a5090985091965090945092505050565b600082815260208181526040808320815160e08101835281546001600160a01b0390811682526001830154811694820194909452600282015490931683830152815161012081019283905284939260608401919060038401906009908288855b825461010083900a900460ff1681526020600192830181810494850194909303909202910180841161098a5790505050509183525050600482015460ff8116151560208301526001600160a01b036101009091048116604083015260059092015460609091015260a09091015181169084161491505092915050565b60026020528160005260406000208181548110610a2257600080fd5b90600052602060002001600091509150505481565b6000818152602081905260409020600481015460ff16610a8e5760405162461bcd60e51b815260206004820152601260248201527147616d65206973206e6f742061637469766560701b6044820152606401610444565b60018101546001600160a01b031615610ae95760405162461bcd60e51b815260206004820152601c60248201527f47616d6520616c7265616479206861732074776f20706c6179657273000000006044820152606401610444565b8054336001600160a01b0390911603610b445760405162461bcd60e51b815260206004820152601960248201527f43616e6e6f74206a6f696e20796f7572206f776e2067616d65000000000000006044820152606401610444565b600180820180546001600160a01b0319163390811790915560008181526002602090815260408083208054958601815583529082209093018590559151909184917f87969bc7faf902221a147b95ceba76e011c5efb0339a0a8ee7a2bb82d9cfbbd69190a35050565b60408051610160810182526000610100820181815260016101208401819052600261014085018190529184528451606081810187526003808352600460208481018290526005858b01819052818a019590955289518085018b52600680825260078284018190526008838e018190528c8e01939093528c518088018e528b815280850196909652858d01829052868c01959095528b518087018d52978852878301849052878c019490945260808a019690965289518085018b5287815280820195909552848a0186905260a089019490945288518084018a52878152808501829052808a019590955260c088019490945287519182018852938152908101919091529384015260e0820192909252815b6008811015610df0576000828260088110610cda57610cda6110d3565b60200201515190506000838360088110610cf657610cf66110d3565b60200201516001602002015190506000848460088110610d1857610d186110d3565b60200201516040015190508660ff841660098110610d3857610d386110d3565b602002015160ff1615801590610d855750868260ff1660098110610d5e57610d5e6110d3565b602002015160ff16878460ff1660098110610d7b57610d7b6110d3565b602002015160ff16145b8015610dc85750868160ff1660098110610da157610da16110d3565b602002015160ff16878360ff1660098110610dbe57610dbe6110d3565b602002015160ff16145b15610dda575060019695505050505050565b5050508080610de8906110ac565b915050610cbd565b5060009392505050565b6000805b6009811015610e4357828160098110610e1957610e196110d3565b602002015160ff16600003610e315750600092915050565b80610e3b816110ac565b915050610dfe565b50600192915050565b600183019183908215610ecf5791602002820160005b83821115610ea057835183826101000a81548160ff021916908360ff1602179055509260200192600101602081600001049283019260010302610e62565b8015610ecd5782816101000a81549060ff0219169055600101602081600001049283019260010302610ea0565b505b50610edb929150610efe565b5090565b6040518061012001604052806009906020820280368337509192915050565b5b80821115610edb5760008155600101610eff565b600060208284031215610f2557600080fd5b5035919050565b80356001600160a01b0381168114610f4357600080fd5b919050565b600060208284031215610f5a57600080fd5b610f6382610f2c565b9392505050565b6020808252825182820181905260009190848201906040850190845b81811015610fa257835183529284019291840191600101610f86565b50909695505050505050565b60008060408385031215610fc157600080fd5b82359150602083013560ff81168114610fd957600080fd5b809150509250929050565b6001600160a01b03878116825286811660208084019190915286821660408401526101c083019190606084018760005b600981101561103457815160ff1683529183019190830190600101611014565b505050508415156101808401528084166101a084015250979650505050505050565b6000806040838503121561106957600080fd5b8235915061107960208401610f2c565b90509250929050565b6000806040838503121561109557600080fd5b61109e83610f2c565b946020939093013593505050565b6000600182016110cc57634e487b7160e01b600052601160045260246000fd5b5060010190565b634e487b7160e01b600052603260045260246000fdfea26469706673582212208f2fe7b1bcf33e1b7c35b305a738f01523f171f4a0897778a199271aee05396b64736f6c63430008140033","opcodes":"PUSH1 0x80 PUSH1 0x40 MSTORE CALLVALUE DUP1 ISZERO PUSH2 0x10 JUMPI PUSH1 0x0 DUP1 REVERT JUMPDEST POP PUSH2 0x111F DUP1 PUSH2 0x20 PUSH1 0x0 CODECOPY PUSH1 0x0 RETURN INVALID PUSH1 0x80 PUSH1 0x40 MSTORE CALLVALUE DUP1 ISZERO PUSH2 0x10 JUMPI PUSH1 0x0 DUP1 REVERT JUMPDEST POP PUSH1 0x4 CALLDATASIZE LT PUSH2 0x93 JUMPI PUSH1 0x0 CALLDATALOAD PUSH1 0xE0 SHR DUP1 PUSH4 0x7FD6F7C4 GT PUSH2 0x66 JUMPI DUP1 PUSH4 0x7FD6F7C4 EQ PUSH2 0x176 JUMPI DUP1 PUSH4 0xA2F77BCC EQ PUSH2 0x18B JUMPI DUP1 PUSH4 0xBDD415AF EQ PUSH2 0x1B0 JUMPI DUP1 PUSH4 0xD2A6629C EQ PUSH2 0x1D3 JUMPI DUP1 PUSH4 0xEFAA55A0 EQ PUSH2 0x1E6 JUMPI PUSH1 0x0 DUP1 REVERT JUMPDEST DUP1 PUSH4 0x117A5B90 EQ PUSH2 0x98 JUMPI DUP1 PUSH4 0x2E0BE39A EQ PUSH2 0x137 JUMPI DUP1 PUSH4 0x33DC9458 EQ PUSH2 0x14E JUMPI DUP1 PUSH4 0x7255D729 EQ PUSH2 0x16E JUMPI JUMPDEST PUSH1 0x0 DUP1 REVERT JUMPDEST PUSH2 0xEF PUSH2 0xA6 CALLDATASIZE PUSH1 0x4 PUSH2 0xF13 JUMP JUMPDEST PUSH1 0x0 PUSH1 0x20 DUP2 SWAP1 MSTORE SWAP1 DUP2 MSTORE PUSH1 0x40 SWAP1 KECCAK256 DUP1 SLOAD PUSH1 0x1 DUP3 ADD SLOAD PUSH1 0x2 DUP4 ADD SLOAD PUSH1 0x4 DUP5 ADD SLOAD PUSH1 0x5 SWAP1 SWAP5 ADD SLOAD PUSH1 0x1 PUSH1 0x1 PUSH1 0xA0 SHL SUB SWAP4 DUP5 AND SWAP5 SWAP3 DUP5 AND SWAP4 SWAP2 DUP3 AND SWAP3 PUSH1 0xFF DUP2 AND SWAP3 PUSH2 0x100 SWAP1 SWAP2 DIV AND SWAP1 DUP7 JUMP JUMPDEST PUSH1 0x40 DUP1 MLOAD PUSH1 0x1 PUSH1 0x1 PUSH1 0xA0 SHL SUB SWAP8 DUP9 AND DUP2 MSTORE SWAP6 DUP8 AND PUSH1 0x20 DUP8 ADD MSTORE SWAP4 DUP7 AND SWAP4 DUP6 ADD SWAP4 SWAP1 SWAP4 MSTORE SWAP1 ISZERO ISZERO PUSH1 0x60 DUP5 ADD MSTORE SWAP1 SWAP3 AND PUSH1 0x80 DUP3 ADD MSTORE PUSH1 0xA0 DUP2 ADD SWAP2 SWAP1 SWAP2 MSTORE PUSH1 0xC0 ADD JUMPDEST PUSH1 0x40 MLOAD DUP1 SWAP2 SUB SWAP1 RETURN JUMPDEST PUSH2 0x140 PUSH1 0x1 SLOAD DUP2 JUMP JUMPDEST PUSH1 0x40 MLOAD SWAP1 DUP2 MSTORE PUSH1 0x20 ADD PUSH2 0x12E JUMP JUMPDEST PUSH2 0x161 PUSH2 0x15C CALLDATASIZE PUSH1 0x4 PUSH2 0xF48 JUMP JUMPDEST PUSH2 0x1F9 JUMP JUMPDEST PUSH1 0x40 MLOAD PUSH2 0x12E SWAP2 SWAP1 PUSH2 0xF6A JUMP JUMPDEST PUSH2 0x140 PUSH2 0x265 JUMP JUMPDEST PUSH2 0x189 PUSH2 0x184 CALLDATASIZE PUSH1 0x4 PUSH2 0xFAE JUMP JUMPDEST PUSH2 0x402 JUMP JUMPDEST STOP JUMPDEST PUSH2 0x19E PUSH2 0x199 CALLDATASIZE PUSH1 0x4 PUSH2 0xF13 JUMP JUMPDEST PUSH2 0x81D JUMP JUMPDEST PUSH1 0x40 MLOAD PUSH2 0x12E SWAP7 SWAP6 SWAP5 SWAP4 SWAP3 SWAP2 SWAP1 PUSH2 0xFE4 JUMP JUMPDEST PUSH2 0x1C3 PUSH2 0x1BE CALLDATASIZE PUSH1 0x4 PUSH2 0x1056 JUMP JUMPDEST PUSH2 0x92A JUMP JUMPDEST PUSH1 0x40 MLOAD SWAP1 ISZERO ISZERO DUP2 MSTORE PUSH1 0x20 ADD PUSH2 0x12E JUMP JUMPDEST PUSH2 0x140 PUSH2 0x1E1 CALLDATASIZE PUSH1 0x4 PUSH2 0x1082 JUMP JUMPDEST PUSH2 0xA06 JUMP JUMPDEST PUSH2 0x189 PUSH2 0x1F4 CALLDATASIZE PUSH1 0x4 PUSH2 0xF13 JUMP JUMPDEST PUSH2 0xA37 JUMP JUMPDEST PUSH1 0x1 PUSH1 0x1 PUSH1 0xA0 SHL SUB DUP2 AND PUSH1 0x0 SWAP1 DUP2 MSTORE PUSH1 0x2 PUSH1 0x20 SWAP1 DUP2 MSTORE PUSH1 0x40 SWAP2 DUP3 SWAP1 KECCAK256 DUP1 SLOAD DUP4 MLOAD DUP2 DUP5 MUL DUP2 ADD DUP5 ADD SWAP1 SWAP5 MSTORE DUP1 DUP5 MSTORE PUSH1 0x60 SWAP4 SWAP3 DUP4 ADD DUP3 DUP3 DUP1 ISZERO PUSH2 0x259 JUMPI PUSH1 0x20 MUL DUP3 ADD SWAP2 SWAP1 PUSH1 0x0 MSTORE PUSH1 0x20 PUSH1 0x0 KECCAK256 SWAP1 JUMPDEST DUP2 SLOAD DUP2 MSTORE PUSH1 0x20 ADD SWAP1 PUSH1 0x1 ADD SWAP1 DUP1 DUP4 GT PUSH2 0x245 JUMPI JUMPDEST POP POP POP POP POP SWAP1 POP SWAP2 SWAP1 POP JUMP JUMPDEST PUSH1 0x1 DUP1 SLOAD PUSH1 0x40 DUP1 MLOAD PUSH1 0xE0 DUP1 DUP3 ADD DUP4 MSTORE CALLER DUP1 DUP4 MSTORE PUSH1 0x0 PUSH1 0x20 DUP1 DUP6 ADD DUP3 DUP2 MSTORE DUP6 DUP8 ADD SWAP4 DUP5 MSTORE DUP7 MLOAD PUSH2 0x120 DUP2 ADD DUP9 MSTORE DUP4 DUP2 MSTORE DUP1 DUP4 ADD DUP5 SWAP1 MSTORE DUP1 DUP9 ADD DUP5 SWAP1 MSTORE PUSH1 0x60 DUP1 DUP3 ADD DUP6 SWAP1 MSTORE PUSH1 0x80 DUP1 DUP4 ADD DUP7 SWAP1 MSTORE PUSH1 0xA0 DUP1 DUP5 ADD DUP8 SWAP1 MSTORE PUSH1 0xC0 DUP1 DUP6 ADD DUP9 SWAP1 MSTORE SWAP9 DUP5 ADD DUP8 SWAP1 MSTORE PUSH2 0x100 DUP5 ADD DUP8 SWAP1 MSTORE SWAP2 DUP10 ADD SWAP3 DUP4 MSTORE DUP9 ADD DUP12 SWAP1 MSTORE DUP8 ADD DUP5 SWAP1 MSTORE TIMESTAMP SWAP6 DUP8 ADD SWAP6 SWAP1 SWAP6 MSTORE DUP8 DUP4 MSTORE SWAP1 DUP3 SWAP1 MSTORE SWAP5 DUP2 KECCAK256 DUP5 MLOAD DUP2 SLOAD PUSH1 0x1 PUSH1 0x1 PUSH1 0xA0 SHL SUB NOT SWAP1 DUP2 AND PUSH1 0x1 PUSH1 0x1 PUSH1 0xA0 SHL SUB SWAP3 DUP4 AND OR DUP4 SSTORE SWAP7 MLOAD SWAP9 DUP3 ADD DUP1 SLOAD DUP9 AND SWAP10 DUP3 AND SWAP10 SWAP1 SWAP10 OR SWAP1 SWAP9 SSTORE SWAP2 MLOAD PUSH1 0x2 DUP4 ADD DUP1 SLOAD SWAP1 SWAP7 AND SWAP8 AND SWAP7 SWAP1 SWAP7 OR SWAP1 SWAP4 SSTORE MLOAD SWAP1 SWAP2 SWAP1 PUSH2 0x349 SWAP1 PUSH1 0x3 DUP4 ADD SWAP1 PUSH1 0x9 PUSH2 0xE4C JUMP JUMPDEST POP PUSH1 0x80 DUP3 ADD MLOAD PUSH1 0x4 DUP3 ADD DUP1 SLOAD PUSH1 0xA0 DUP6 ADD MLOAD PUSH1 0x1 PUSH1 0x1 PUSH1 0xA0 SHL SUB AND PUSH2 0x100 MUL PUSH2 0x100 PUSH1 0x1 PUSH1 0xA8 SHL SUB NOT SWAP4 ISZERO ISZERO SWAP4 SWAP1 SWAP4 AND PUSH1 0x1 PUSH1 0x1 PUSH1 0xA8 SHL SUB NOT SWAP1 SWAP2 AND OR SWAP2 SWAP1 SWAP2 OR SWAP1 SSTORE PUSH1 0xC0 SWAP1 SWAP2 ADD MLOAD PUSH1 0x5 SWAP1 SWAP2 ADD SSTORE PUSH1 0x1 DUP1 SLOAD SWAP1 PUSH1 0x0 PUSH2 0x3A7 DUP4 PUSH2 0x10AC JUMP JUMPDEST SWAP1 SWAP2 SSTORE POP POP CALLER PUSH1 0x0 DUP2 DUP2 MSTORE PUSH1 0x2 PUSH1 0x20 SWAP1 DUP2 MSTORE PUSH1 0x40 DUP1 DUP4 KECCAK256 DUP1 SLOAD PUSH1 0x1 DUP2 ADD DUP3 SSTORE SWAP1 DUP5 MSTORE SWAP2 DUP4 KECCAK256 SWAP1 SWAP2 ADD DUP5 SWAP1 SSTORE MLOAD SWAP1 SWAP2 SWAP1 DUP4 SWAP1 PUSH32 0x8946648BC1DBC670D3F07E2C4DE91731227B6D4CCC53B8AB1E951E84D960577E SWAP1 DUP5 SWAP1 LOG4 SWAP2 SWAP1 POP JUMP JUMPDEST PUSH1 0x9 DUP2 PUSH1 0xFF AND LT PUSH2 0x44D JUMPI PUSH1 0x40 MLOAD PUSH3 0x461BCD PUSH1 0xE5 SHL DUP2 MSTORE PUSH1 0x20 PUSH1 0x4 DUP3 ADD MSTORE PUSH1 0x10 PUSH1 0x24 DUP3 ADD MSTORE PUSH16 0x24B73B30B634B2103837B9B4BA34B7B7 PUSH1 0x81 SHL PUSH1 0x44 DUP3 ADD MSTORE PUSH1 0x64 ADD JUMPDEST PUSH1 0x40 MLOAD DUP1 SWAP2 SUB SWAP1 REVERT JUMPDEST PUSH1 0x0 DUP3 DUP2 MSTORE PUSH1 0x20 DUP2 SWAP1 MSTORE PUSH1 0x40 SWAP1 KECCAK256 PUSH1 0x4 DUP2 ADD SLOAD PUSH1 0xFF AND PUSH2 0x4A4 JUMPI PUSH1 0x40 MLOAD PUSH3 0x461BCD PUSH1 0xE5 SHL DUP2 MSTORE PUSH1 0x20 PUSH1 0x4 DUP3 ADD MSTORE PUSH1 0x12 PUSH1 0x24 DUP3 ADD MSTORE PUSH18 0x47616D65206973206E6F7420616374697665 PUSH1 0x70 SHL PUSH1 0x44 DUP3 ADD MSTORE PUSH1 0x64 ADD PUSH2 0x444 JUMP JUMPDEST PUSH1 0x1 DUP2 ADD SLOAD PUSH1 0x1 PUSH1 0x1 PUSH1 0xA0 SHL SUB AND PUSH2 0x4FE JUMPI PUSH1 0x40 MLOAD PUSH3 0x461BCD PUSH1 0xE5 SHL DUP2 MSTORE PUSH1 0x20 PUSH1 0x4 DUP3 ADD MSTORE PUSH1 0x19 PUSH1 0x24 DUP3 ADD MSTORE PUSH32 0x57616974696E6720666F72207365636F6E6420706C6179657200000000000000 PUSH1 0x44 DUP3 ADD MSTORE PUSH1 0x64 ADD PUSH2 0x444 JUMP JUMPDEST PUSH1 0x2 DUP2 ADD SLOAD PUSH1 0x1 PUSH1 0x1 PUSH1 0xA0 SHL SUB AND CALLER EQ PUSH2 0x54A JUMPI PUSH1 0x40 MLOAD PUSH3 0x461BCD PUSH1 0xE5 SHL DUP2 MSTORE PUSH1 0x20 PUSH1 0x4 DUP3 ADD MSTORE PUSH1 0xD PUSH1 0x24 DUP3 ADD MSTORE PUSH13 0x2737BA103CB7BAB9103A3AB937 PUSH1 0x99 SHL PUSH1 0x44 DUP3 ADD MSTORE PUSH1 0x64 ADD PUSH2 0x444 JUMP JUMPDEST DUP1 PUSH1 0x3 ADD DUP3 PUSH1 0xFF AND PUSH1 0x9 DUP2 LT PUSH2 0x562 JUMPI PUSH2 0x562 PUSH2 0x10D3 JUMP JUMPDEST PUSH1 0x20 DUP2 DIV SWAP1 SWAP2 ADD SLOAD PUSH1 0xFF PUSH1 0x1F SWAP1 SWAP3 AND PUSH2 0x100 EXP SWAP1 DIV AND ISZERO PUSH2 0x5BE JUMPI PUSH1 0x40 MLOAD PUSH3 0x461BCD PUSH1 0xE5 SHL DUP2 MSTORE PUSH1 0x20 PUSH1 0x4 DUP3 ADD MSTORE PUSH1 0x16 PUSH1 0x24 DUP3 ADD MSTORE PUSH22 0x2837B9B4BA34B7B71030B63932B0B23C903A30B5B2B7 PUSH1 0x51 SHL PUSH1 0x44 DUP3 ADD MSTORE PUSH1 0x64 ADD PUSH2 0x444 JUMP JUMPDEST DUP1 SLOAD PUSH1 0x0 SWAP1 PUSH1 0x1 PUSH1 0x1 PUSH1 0xA0 SHL SUB AND CALLER EQ PUSH2 0x5D9 JUMPI PUSH1 0x2 PUSH2 0x5DC JUMP JUMPDEST PUSH1 0x1 JUMPDEST SWAP1 POP DUP1 DUP3 PUSH1 0x3 ADD DUP5 PUSH1 0xFF AND PUSH1 0x9 DUP2 LT PUSH2 0x5F7 JUMPI PUSH2 0x5F7 PUSH2 0x10D3 JUMP JUMPDEST PUSH1 0x20 SWAP2 DUP3 DUP3 DIV ADD SWAP2 SWAP1 MOD PUSH2 0x100 EXP DUP2 SLOAD DUP2 PUSH1 0xFF MUL NOT AND SWAP1 DUP4 PUSH1 0xFF AND MUL OR SWAP1 SSTORE POP PUSH1 0x0 PUSH2 0x67F DUP4 PUSH1 0x3 ADD PUSH1 0x9 DUP1 PUSH1 0x20 MUL PUSH1 0x40 MLOAD SWAP1 DUP2 ADD PUSH1 0x40 MSTORE DUP1 SWAP3 SWAP2 SWAP1 DUP3 PUSH1 0x9 DUP1 ISZERO PUSH2 0x675 JUMPI PUSH1 0x20 MUL DUP3 ADD SWAP2 PUSH1 0x0 SWAP1 JUMPDEST DUP3 SLOAD PUSH2 0x100 DUP4 SWAP1 EXP SWAP1 DIV PUSH1 0xFF AND DUP2 MSTORE PUSH1 0x20 PUSH1 0x1 SWAP3 DUP4 ADD DUP2 DUP2 DIV SWAP5 DUP6 ADD SWAP5 SWAP1 SWAP4 SUB SWAP1 SWAP3 MUL SWAP2 ADD DUP1 DUP5 GT PUSH2 0x646 JUMPI SWAP1 POP JUMPDEST POP POP POP POP POP PUSH2 0xBAD JUMP JUMPDEST SWAP1 POP PUSH1 0x1 PUSH1 0x1 PUSH1 0xA0 SHL SUB DUP2 AND ISZERO PUSH2 0x6E1 JUMPI PUSH1 0x4 DUP4 ADD DUP1 SLOAD PUSH1 0x1 PUSH1 0x1 PUSH1 0xA8 SHL SUB NOT AND CALLER PUSH2 0x100 DUP2 MUL PUSH1 0xFF NOT AND SWAP2 SWAP1 SWAP2 OR SWAP1 SWAP2 SSTORE PUSH1 0x40 MLOAD DUP7 SWAP1 PUSH32 0x3D5FCD8FA3235AEB3897F25C8EA49989174981AFCB01B9D03189D1056A16775B SWAP1 PUSH1 0x0 SWAP1 LOG3 PUSH2 0x7D5 JUMP JUMPDEST PUSH1 0x40 DUP1 MLOAD PUSH2 0x120 DUP2 ADD SWAP2 DUP3 SWAP1 MSTORE PUSH2 0x737 SWAP2 PUSH1 0x3 DUP7 ADD SWAP1 PUSH1 0x9 SWAP1 DUP3 PUSH1 0x0 DUP6 JUMPDEST DUP3 SLOAD PUSH2 0x100 DUP4 SWAP1 EXP SWAP1 DIV PUSH1 0xFF AND DUP2 MSTORE PUSH1 0x20 PUSH1 0x1 SWAP3 DUP4 ADD DUP2 DUP2 DIV SWAP5 DUP6 ADD SWAP5 SWAP1 SWAP4 SUB SWAP1 SWAP3 MUL SWAP2 ADD DUP1 DUP5 GT PUSH2 0x6FF JUMPI SWAP1 POP POP POP POP POP POP PUSH2 0xDFA JUMP JUMPDEST ISZERO PUSH2 0x77A JUMPI PUSH1 0x4 DUP4 ADD DUP1 SLOAD PUSH1 0xFF NOT AND SWAP1 SSTORE PUSH1 0x40 MLOAD PUSH1 0x0 SWAP1 DUP7 SWAP1 PUSH32 0x3D5FCD8FA3235AEB3897F25C8EA49989174981AFCB01B9D03189D1056A16775B SWAP1 DUP4 SWAP1 LOG3 PUSH2 0x7D5 JUMP JUMPDEST DUP3 SLOAD PUSH1 0x2 DUP5 ADD SLOAD PUSH1 0x1 PUSH1 0x1 PUSH1 0xA0 SHL SUB SWAP1 DUP2 AND SWAP2 AND EQ PUSH2 0x7A3 JUMPI DUP3 SLOAD PUSH1 0x1 PUSH1 0x1 PUSH1 0xA0 SHL SUB AND PUSH2 0x7B2 JUMP JUMPDEST PUSH1 0x1 DUP4 ADD SLOAD PUSH1 0x1 PUSH1 0x1 PUSH1 0xA0 SHL SUB AND JUMPDEST PUSH1 0x2 DUP5 ADD DUP1 SLOAD PUSH1 0x1 PUSH1 0x1 PUSH1 0xA0 SHL SUB NOT AND PUSH1 0x1 PUSH1 0x1 PUSH1 0xA0 SHL SUB SWAP3 SWAP1 SWAP3 AND SWAP2 SWAP1 SWAP2 OR SWAP1 SSTORE JUMPDEST PUSH1 0x40 DUP1 MLOAD PUSH1 0xFF DUP1 DUP8 AND DUP3 MSTORE DUP5 AND PUSH1 0x20 DUP3 ADD MSTORE CALLER SWAP2 DUP8 SWAP2 PUSH32 0xBE40D1920F8027F06BC68552ED303055FA07D40C841A38363937C06D7651495A SWAP2 ADD PUSH1 0x40 MLOAD DUP1 SWAP2 SUB SWAP1 LOG3 POP POP POP POP POP JUMP JUMPDEST PUSH1 0x0 DUP1 PUSH1 0x0 PUSH2 0x82A PUSH2 0xEDF JUMP JUMPDEST PUSH1 0x0 DUP6 DUP2 MSTORE PUSH1 0x20 DUP2 DUP2 MSTORE PUSH1 0x40 DUP1 DUP4 KECCAK256 DUP2 MLOAD PUSH1 0xE0 DUP2 ADD DUP4 MSTORE DUP2 SLOAD PUSH1 0x1 PUSH1 0x1 PUSH1 0xA0 SHL SUB SWAP1 DUP2 AND DUP3 MSTORE PUSH1 0x1 DUP4 ADD SLOAD DUP2 AND SWAP5 DUP3 ADD SWAP5 SWAP1 SWAP5 MSTORE PUSH1 0x2 DUP3 ADD SLOAD SWAP1 SWAP4 AND DUP4 DUP4 ADD MSTORE DUP2 MLOAD PUSH2 0x120 DUP2 ADD SWAP3 DUP4 SWAP1 MSTORE DUP5 SWAP4 DUP5 SWAP4 SWAP1 SWAP3 SWAP2 PUSH1 0x60 DUP5 ADD SWAP2 PUSH1 0x3 DUP5 ADD SWAP1 PUSH1 0x9 SWAP1 DUP3 DUP9 DUP6 JUMPDEST DUP3 SLOAD PUSH2 0x100 DUP4 SWAP1 EXP SWAP1 DIV PUSH1 0xFF AND DUP2 MSTORE PUSH1 0x20 PUSH1 0x1 SWAP3 DUP4 ADD DUP2 DUP2 DIV SWAP5 DUP6 ADD SWAP5 SWAP1 SWAP4 SUB SWAP1 SWAP3 MUL SWAP2 ADD DUP1 DUP5 GT PUSH2 0x88D JUMPI POP POP POP SWAP3 DUP5 MSTORE POP POP POP PUSH1 0x4 DUP3 ADD SLOAD PUSH1 0xFF DUP2 AND ISZERO ISZERO PUSH1 0x20 DUP1 DUP5 ADD SWAP2 SWAP1 SWAP2 MSTORE PUSH2 0x100 SWAP1 SWAP2 DIV PUSH1 0x1 PUSH1 0x1 PUSH1 0xA0 SHL SUB AND PUSH1 0x40 DUP1 DUP5 ADD SWAP2 SWAP1 SWAP2 MSTORE PUSH1 0x5 SWAP1 SWAP4 ADD SLOAD PUSH1 0x60 SWAP3 DUP4 ADD MSTORE DUP4 MLOAD SWAP1 DUP5 ADD MLOAD SWAP3 DUP5 ADD MLOAD SWAP2 DUP5 ADD MLOAD PUSH1 0x80 DUP6 ADD MLOAD PUSH1 0xA0 SWAP1 SWAP6 ADD MLOAD SWAP2 SWAP14 SWAP4 SWAP13 POP SWAP2 SWAP11 POP SWAP1 SWAP9 POP SWAP2 SWAP7 POP SWAP1 SWAP5 POP SWAP3 POP POP POP JUMP JUMPDEST PUSH1 0x0 DUP3 DUP2 MSTORE PUSH1 0x20 DUP2 DUP2 MSTORE PUSH1 0x40 DUP1 DUP4 KECCAK256 DUP2 MLOAD PUSH1 0xE0 DUP2 ADD DUP4 MSTORE DUP2 SLOAD PUSH1 0x1 PUSH1 0x1 PUSH1 0xA0 SHL SUB SWAP1 DUP2 AND DUP3 MSTORE PUSH1 0x1 DUP4 ADD SLOAD DUP2 AND SWAP5 DUP3 ADD SWAP5 SWAP1 SWAP5 MSTORE PUSH1 0x2 DUP3 ADD SLOAD SWAP1 SWAP4 AND DUP4 DUP4 ADD MSTORE DUP2 MLOAD PUSH2 0x120 DUP2 ADD SWAP3 DUP4 SWAP1 MSTORE DUP5 SWAP4 SWAP3 PUSH1 0x60 DUP5 ADD SWAP2 SWAP1 PUSH1 0x3 DUP5 ADD SWAP1 PUSH1 0x9 SWAP1 DUP3 DUP9 DUP6 JUMPDEST DUP3 SLOAD PUSH2 0x100 DUP4 SWAP1 EXP SWAP1 DIV PUSH1 0xFF AND DUP2 MSTORE PUSH1 0x20 PUSH1 0x1 SWAP3 DUP4 ADD DUP2 DUP2 DIV SWAP5 DUP6 ADD SWAP5 SWAP1 SWAP4 SUB SWAP1 SWAP3 MUL SWAP2 ADD DUP1 DUP5 GT PUSH2 0x98A JUMPI SWAP1 POP POP POP POP SWAP2 DUP4 MSTORE POP POP PUSH1 0x4 DUP3 ADD SLOAD PUSH1 0xFF DUP2 AND ISZERO ISZERO PUSH1 0x20 DUP4 ADD MSTORE PUSH1 0x1 PUSH1 0x1 PUSH1 0xA0 SHL SUB PUSH2 0x100 SWAP1 SWAP2 DIV DUP2 AND PUSH1 0x40 DUP4 ADD MSTORE PUSH1 0x5 SWAP1 SWAP3 ADD SLOAD PUSH1 0x60 SWAP1 SWAP2 ADD MSTORE PUSH1 0xA0 SWAP1 SWAP2 ADD MLOAD DUP2 AND SWAP1 DUP5 AND EQ SWAP2 POP POP SWAP3 SWAP2 POP POP JUMP JUMPDEST PUSH1 0x2 PUSH1 0x20 MSTORE DUP2 PUSH1 0x0 MSTORE PUSH1 0x40 PUSH1 0x0 KECCAK256 DUP2 DUP2 SLOAD DUP2 LT PUSH2 0xA22 JUMPI PUSH1 0x0 DUP1 REVERT JUMPDEST SWAP1 PUSH1 0x0 MSTORE PUSH1 0x20 PUSH1 0x0 KECCAK256 ADD PUSH1 0x0 SWAP2 POP SWAP2 POP POP SLOAD DUP2 JUMP JUMPDEST PUSH1 0x0 DUP2 DUP2 MSTORE PUSH1 0x20 DUP2 SWAP1 MSTORE PUSH1 0x40 SWAP1 KECCAK256 PUSH1 0x4 DUP2 ADD SLOAD PUSH1 0xFF AND PUSH2 0xA8E JUMPI PUSH1 0x40 MLOAD PUSH3 0x461BCD PUSH1 0xE5 SHL DUP2 MSTORE PUSH1 0x20 PUSH1 0x4 DUP3 ADD MSTORE PUSH1 0x12 PUSH1 0x24 DUP3 ADD MSTORE PUSH18 0x47616D65206973206E6F7420616374697665 PUSH1 0x70 SHL PUSH1 0x44 DUP3 ADD MSTORE PUSH1 0x64 ADD PUSH2 0x444 JUMP JUMPDEST PUSH1 0x1 DUP2 ADD SLOAD PUSH1 0x1 PUSH1 0x1 PUSH1 0xA0 SHL SUB AND ISZERO PUSH2 0xAE9 JUMPI PUSH1 0x40 MLOAD PUSH3 0x461BCD PUSH1 0xE5 SHL DUP2 MSTORE PUSH1 0x20 PUSH1 0x4 DUP3 ADD MSTORE PUSH1 0x1C PUSH1 0x24 DUP3 ADD MSTORE PUSH32 0x47616D6520616C7265616479206861732074776F20706C617965727300000000 PUSH1 0x44 DUP3 ADD MSTORE PUSH1 0x64 ADD PUSH2 0x444 JUMP JUMPDEST DUP1 SLOAD CALLER PUSH1 0x1 PUSH1 0x1 PUSH1 0xA0 SHL SUB SWAP1 SWAP2 AND SUB PUSH2 0xB44 JUMPI PUSH1 0x40 MLOAD PUSH3 0x461BCD PUSH1 0xE5 SHL DUP2 MSTORE PUSH1 0x20 PUSH1 0x4 DUP3 ADD MSTORE PUSH1 0x19 PUSH1 0x24 DUP3 ADD MSTORE PUSH32 0x43616E6E6F74206A6F696E20796F7572206F776E2067616D6500000000000000 PUSH1 0x44 DUP3 ADD MSTORE PUSH1 0x64 ADD PUSH2 0x444 JUMP JUMPDEST PUSH1 0x1 DUP1 DUP3 ADD DUP1 SLOAD PUSH1 0x1 PUSH1 0x1 PUSH1 0xA0 SHL SUB NOT AND CALLER SWAP1 DUP2 OR SWAP1 SWAP2 SSTORE PUSH1 0x0 DUP2 DUP2 MSTORE PUSH1 0x2 PUSH1 0x20 SWAP1 DUP2 MSTORE PUSH1 0x40 DUP1 DUP4 KECCAK256 DUP1 SLOAD SWAP6 DUP7 ADD DUP2 SSTORE DUP4 MSTORE SWAP1 DUP3 KECCAK256 SWAP1 SWAP4 ADD DUP6 SWAP1 SSTORE SWAP2 MLOAD SWAP1 SWAP2 DUP5 SWAP2 PUSH32 0x87969BC7FAF902221A147B95CEBA76E011C5EFB0339A0A8EE7A2BB82D9CFBBD6 SWAP2 SWAP1 LOG3 POP POP JUMP JUMPDEST PUSH1 0x40 DUP1 MLOAD PUSH2 0x160 DUP2 ADD DUP3 MSTORE PUSH1 0x0 PUSH2 0x100 DUP3 ADD DUP2 DUP2 MSTORE PUSH1 0x1 PUSH2 0x120 DUP5 ADD DUP2 SWAP1 MSTORE PUSH1 0x2 PUSH2 0x140 DUP6 ADD DUP2 SWAP1 MSTORE SWAP2 DUP5 MSTORE DUP5 MLOAD PUSH1 0x60 DUP2 DUP2 ADD DUP8 MSTORE PUSH1 0x3 DUP1 DUP4 MSTORE PUSH1 0x4 PUSH1 0x20 DUP5 DUP2 ADD DUP3 SWAP1 MSTORE PUSH1 0x5 DUP6 DUP12 ADD DUP2 SWAP1 MSTORE DUP2 DUP11 ADD SWAP6 SWAP1 SWAP6 MSTORE DUP10 MLOAD DUP1 DUP6 ADD DUP12 MSTORE PUSH1 0x6 DUP1 DUP3 MSTORE PUSH1 0x7 DUP3 DUP5 ADD DUP2 SWAP1 MSTORE PUSH1 0x8 DUP4 DUP15 ADD DUP2 SWAP1 MSTORE DUP13 DUP15 ADD SWAP4 SWAP1 SWAP4 MSTORE DUP13 MLOAD DUP1 DUP9 ADD DUP15 MSTORE DUP12 DUP2 MSTORE DUP1 DUP6 ADD SWAP7 SWAP1 SWAP7 MSTORE DUP6 DUP14 ADD DUP3 SWAP1 MSTORE DUP7 DUP13 ADD SWAP6 SWAP1 SWAP6 MSTORE DUP12 MLOAD DUP1 DUP8 ADD DUP14 MSTORE SWAP8 DUP9 MSTORE DUP8 DUP4 ADD DUP5 SWAP1 MSTORE DUP8 DUP13 ADD SWAP5 SWAP1 SWAP5 MSTORE PUSH1 0x80 DUP11 ADD SWAP7 SWAP1 SWAP7 MSTORE DUP10 MLOAD DUP1 DUP6 ADD DUP12 MSTORE DUP8 DUP2 MSTORE DUP1 DUP3 ADD SWAP6 SWAP1 SWAP6 MSTORE DUP5 DUP11 ADD DUP7 SWAP1 MSTORE PUSH1 0xA0 DUP10 ADD SWAP5 SWAP1 SWAP5 MSTORE DUP9 MLOAD DUP1 DUP5 ADD DUP11 MSTORE DUP8 DUP2 MSTORE DUP1 DUP6 ADD DUP3 SWAP1 MSTORE DUP1 DUP11 ADD SWAP6 SWAP1 SWAP6 MSTORE PUSH1 0xC0 DUP9 ADD SWAP5 SWAP1 SWAP5 MSTORE DUP8 MLOAD SWAP2 DUP3 ADD DUP9 MSTORE SWAP4 DUP2 MSTORE SWAP1 DUP2 ADD SWAP2 SWAP1 SWAP2 MSTORE SWAP4 DUP5 ADD MSTORE PUSH1 0xE0 DUP3 ADD SWAP3 SWAP1 SWAP3 MSTORE DUP2 JUMPDEST PUSH1 0x8 DUP2 LT ISZERO PUSH2 0xDF0 JUMPI PUSH1 0x0 DUP3 DUP3 PUSH1 0x8 DUP2 LT PUSH2 0xCDA JUMPI PUSH2 0xCDA PUSH2 0x10D3 JUMP JUMPDEST PUSH1 0x20 MUL ADD MLOAD MLOAD SWAP1 POP PUSH1 0x0 DUP4 DUP4 PUSH1 0x8 DUP2 LT PUSH2 0xCF6 JUMPI PUSH2 0xCF6 PUSH2 0x10D3 JUMP JUMPDEST PUSH1 0x20 MUL ADD MLOAD PUSH1 0x1 PUSH1 0x20 MUL ADD MLOAD SWAP1 POP PUSH1 0x0 DUP5 DUP5 PUSH1 0x8 DUP2 LT PUSH2 0xD18 JUMPI PUSH2 0xD18 PUSH2 0x10D3 JUMP JUMPDEST PUSH1 0x20 MUL ADD MLOAD PUSH1 0x40 ADD MLOAD SWAP1 POP DUP7 PUSH1 0xFF DUP5 AND PUSH1 0x9 DUP2 LT PUSH2 0xD38 JUMPI PUSH2 0xD38 PUSH2 0x10D3 JUMP JUMPDEST PUSH1 0x20 MUL ADD MLOAD PUSH1 0xFF AND ISZERO DUP1 ISZERO SWAP1 PUSH2 0xD85 JUMPI POP DUP7 DUP3 PUSH1 0xFF AND PUSH1 0x9 DUP2 LT PUSH2 0xD5E JUMPI PUSH2 0xD5E PUSH2 0x10D3 JUMP JUMPDEST PUSH1 0x20 MUL ADD MLOAD PUSH1 0xFF AND DUP8 DUP5 PUSH1 0xFF AND PUSH1 0x9 DUP2 LT PUSH2 0xD7B JUMPI PUSH2 0xD7B PUSH2 0x10D3 JUMP JUMPDEST PUSH1 0x20 MUL ADD MLOAD PUSH1 0xFF AND EQ JUMPDEST DUP1 ISZERO PUSH2 0xDC8 JUMPI POP DUP7 DUP2 PUSH1 0xFF AND PUSH1 0x9 DUP2 LT PUSH2 0xDA1 JUMPI PUSH2 0xDA1 PUSH2 0x10D3 JUMP JUMPDEST PUSH1 0x20 MUL ADD MLOAD PUSH1 0xFF AND DUP8 DUP4 PUSH1 0xFF AND PUSH1 0x9 DUP2 LT PUSH2 0xDBE JUMPI PUSH2 0xDBE PUSH2 0x10D3 JUMP JUMPDEST PUSH1 0x20 MUL ADD MLOAD PUSH1 0xFF AND EQ JUMPDEST ISZERO PUSH2 0xDDA JUMPI POP PUSH1 0x1 SWAP7 SWAP6 POP POP POP POP POP POP JUMP JUMPDEST POP POP POP DUP1 DUP1 PUSH2 0xDE8 SWAP1 PUSH2 0x10AC JUMP JUMPDEST SWAP2 POP POP PUSH2 0xCBD JUMP JUMPDEST POP PUSH1 0x0 SWAP4 SWAP3 POP POP POP JUMP JUMPDEST PUSH1 0x0 DUP1 JUMPDEST PUSH1 0x9 DUP2 LT ISZERO PUSH2 0xE43 JUMPI DUP3 DUP2 PUSH1 0x9 DUP2 LT PUSH2 0xE19 JUMPI PUSH2 0xE19 PUSH2 0x10D3 JUMP JUMPDEST PUSH1 0x20 MUL ADD MLOAD PUSH1 0xFF AND PUSH1 0x0 SUB PUSH2 0xE31 JUMPI POP PUSH1 0x0 SWAP3 SWAP2 POP POP JUMP JUMPDEST DUP1 PUSH2 0xE3B DUP2 PUSH2 0x10AC JUMP JUMPDEST SWAP2 POP POP PUSH2 0xDFE JUMP JUMPDEST POP PUSH1 0x1 SWAP3 SWAP2 POP POP JUMP JUMPDEST PUSH1 0x1 DUP4 ADD SWAP2 DUP4 SWAP1 DUP3 ISZERO PUSH2 0xECF JUMPI SWAP2 PUSH1 0x20 MUL DUP3 ADD PUSH1 0x0 JUMPDEST DUP4 DUP3 GT ISZERO PUSH2 0xEA0 JUMPI DUP4 MLOAD DUP4 DUP3 PUSH2 0x100 EXP DUP2 SLOAD DUP2 PUSH1 0xFF MUL NOT AND SWAP1 DUP4 PUSH1 0xFF AND MUL OR SWAP1 SSTORE POP SWAP3 PUSH1 0x20 ADD SWAP3 PUSH1 0x1 ADD PUSH1 0x20 DUP2 PUSH1 0x0 ADD DIV SWAP3 DUP4 ADD SWAP3 PUSH1 0x1 SUB MUL PUSH2 0xE62 JUMP JUMPDEST DUP1 ISZERO PUSH2 0xECD JUMPI DUP3 DUP2 PUSH2 0x100 EXP DUP2 SLOAD SWAP1 PUSH1 0xFF MUL NOT AND SWAP1 SSTORE PUSH1 0x1 ADD PUSH1 0x20 DUP2 PUSH1 0x0 ADD DIV SWAP3 DUP4 ADD SWAP3 PUSH1 0x1 SUB MUL PUSH2 0xEA0 JUMP JUMPDEST POP JUMPDEST POP PUSH2 0xEDB SWAP3 SWAP2 POP PUSH2 0xEFE JUMP JUMPDEST POP SWAP1 JUMP JUMPDEST PUSH1 0x40 MLOAD DUP1 PUSH2 0x120 ADD PUSH1 0x40 MSTORE DUP1 PUSH1 0x9 SWAP1 PUSH1 0x20 DUP3 MUL DUP1 CALLDATASIZE DUP4 CALLDATACOPY POP SWAP2 SWAP3 SWAP2 POP POP JUMP JUMPDEST JUMPDEST DUP1 DUP3 GT ISZERO PUSH2 0xEDB JUMPI PUSH1 0x0 DUP2 SSTORE PUSH1 0x1 ADD PUSH2 0xEFF JUMP JUMPDEST PUSH1 0x0 PUSH1 0x20 DUP3 DUP5 SUB SLT ISZERO PUSH2 0xF25 JUMPI PUSH1 0x0 DUP1 REVERT JUMPDEST POP CALLDATALOAD SWAP2 SWAP1 POP JUMP JUMPDEST DUP1 CALLDATALOAD PUSH1 0x1 PUSH1 0x1 PUSH1 0xA0 SHL SUB DUP2 AND DUP2 EQ PUSH2 0xF43 JUMPI PUSH1 0x0 DUP1 REVERT JUMPDEST SWAP2 SWAP1 POP JUMP JUMPDEST PUSH1 0x0 PUSH1 0x20 DUP3 DUP5 SUB SLT ISZERO PUSH2 0xF5A JUMPI PUSH1 0x0 DUP1 REVERT JUMPDEST PUSH2 0xF63 DUP3 PUSH2 0xF2C JUMP JUMPDEST SWAP4 SWAP3 POP POP POP JUMP JUMPDEST PUSH1 0x20 DUP1 DUP3 MSTORE DUP3 MLOAD DUP3 DUP3 ADD DUP2 SWAP1 MSTORE PUSH1 0x0 SWAP2 SWAP1 DUP5 DUP3 ADD SWAP1 PUSH1 0x40 DUP6 ADD SWAP1 DUP5 JUMPDEST DUP2 DUP2 LT ISZERO PUSH2 0xFA2 JUMPI DUP4 MLOAD DUP4 MSTORE SWAP3 DUP5 ADD SWAP3 SWAP2 DUP5 ADD SWAP2 PUSH1 0x1 ADD PUSH2 0xF86 JUMP JUMPDEST POP SWAP1 SWAP7 SWAP6 POP POP POP POP POP POP JUMP JUMPDEST PUSH1 0x0 DUP1 PUSH1 0x40 DUP4 DUP6 SUB SLT ISZERO PUSH2 0xFC1 JUMPI PUSH1 0x0 DUP1 REVERT JUMPDEST DUP3 CALLDATALOAD SWAP2 POP PUSH1 0x20 DUP4 ADD CALLDATALOAD PUSH1 0xFF DUP2 AND DUP2 EQ PUSH2 0xFD9 JUMPI PUSH1 0x0 DUP1 REVERT JUMPDEST DUP1 SWAP2 POP POP SWAP3 POP SWAP3 SWAP1 POP JUMP JUMPDEST PUSH1 0x1 PUSH1 0x1 PUSH1 0xA0 SHL SUB DUP8 DUP2 AND DUP3 MSTORE DUP7 DUP2 AND PUSH1 0x20 DUP1 DUP5 ADD SWAP2 SWAP1 SWAP2 MSTORE DUP7 DUP3 AND PUSH1 0x40 DUP5 ADD MSTORE PUSH2 0x1C0 DUP4 ADD SWAP2 SWAP1 PUSH1 0x60 DUP5 ADD DUP8 PUSH1 0x0 JUMPDEST PUSH1 0x9 DUP2 LT ISZERO PUSH2 0x1034 JUMPI DUP2 MLOAD PUSH1 0xFF AND DUP4 MSTORE SWAP2 DUP4 ADD SWAP2 SWAP1 DUP4 ADD SWAP1 PUSH1 0x1 ADD PUSH2 0x1014 JUMP JUMPDEST POP POP POP POP DUP5 ISZERO ISZERO PUSH2 0x180 DUP5 ADD MSTORE DUP1 DUP5 AND PUSH2 0x1A0 DUP5 ADD MSTORE POP SWAP8 SWAP7 POP POP POP POP POP POP POP JUMP JUMPDEST PUSH1 0x0 DUP1 PUSH1 0x40 DUP4 DUP6 SUB SLT ISZERO PUSH2 0x1069 JUMPI PUSH1 0x0 DUP1 REVERT JUMPDEST DUP3 CALLDATALOAD SWAP2 POP PUSH2 0x1079 PUSH1 0x20 DUP5 ADD PUSH2 0xF2C JUMP JUMPDEST SWAP1 POP SWAP3 POP SWAP3 SWAP1 POP JUMP JUMPDEST PUSH1 0x0 DUP1 PUSH1 0x40 DUP4 DUP6 SUB SLT ISZERO PUSH2 0x1095 JUMPI PUSH1 0x0 DUP1 REVERT JUMPDEST PUSH2 0x109E DUP4 PUSH2 0xF2C JUMP JUMPDEST SWAP5 PUSH1 0x20 SWAP4 SWAP1 SWAP4 ADD CALLDATALOAD SWAP4 POP POP POP JUMP JUMPDEST PUSH1 0x0 PUSH1 0x1 DUP3 ADD PUSH2 0x10CC JUMPI PUSH4 0x4E487B71 PUSH1 0xE0 SHL PUSH1 0x0 MSTORE PUSH1 0x11 PUSH1 0x4 MSTORE PUSH1 0x24 PUSH1 0x0 REVERT JUMPDEST POP PUSH1 0x1 ADD SWAP1 JUMP JUMPDEST PUSH4 0x4E487B71 PUSH1 0xE0 SHL PUSH1 0x0 MSTORE PUSH1 0x32 PUSH1 0x4 MSTORE PUSH1 0x24 PUSH1 0x0 REVERT INVALID LOG2 PUSH5 0x6970667358 0x22 SLT KECCAK256 DUP16 0x2F 0xE7 0xB1 0xBC RETURN RETURNDATACOPY SHL PUSH29 0x35B305A738F01523F171F4A0897778A199271AEE05396B64736F6C6343 STOP ADDMOD EQ STOP CALLER "},"methodIdentifiers":{"createGame()":"7255d729","gameCounter()":"2e0be39a","games(uint256)":"117a5b90","getGame(uint256)":"a2f77bcc","getPlayerActiveGames(address)":"33dc9458","isWinner(uint256,address)":"bdd415af","joinGame(uint256)":"efaa55a0","makeMove(uint256,uint8)":"7fd6f7c4","playerActiveGames(address,uint256)":"d2a6629c"}}}}}